:020000040000FA
:060000000A128A11FC2F18
:100EFC008316031388018312031388010800F10180
:100F0C00F2010A128A117E270A128A110130F107A6
:100F1C000318F20A0030F20751307106C33003197E
:100F2C007206031D9A2F9B2F8C2FF101F2010930B1
:100F3C0073020318A22FA32FAB2F031483120313D6
:100F4C00880D0130F0007008F30709307302031CA0
:100F5C00B02FB12FC12F123073020318B62FB72F39
:100F6C00C12F831203130808F000700788000130AA
:100F7C00F0007008F30712307302031CC62FC72F42
:100F8C00D92F1B3073020318CC2FCD2FD92F8312DE
:100F9C0003130808F0000310700C8038880001302F
:100FAC00F0007008F3071B307302031CDE2FDF2FD9
:100FBC008C2F243073020318E42FE52F8C2F83120F
:100FCC0003130808F0000310700C88000130F000C7
:100FDC007008F30724307306031DF52FF62FF82F36
:100FEC00F3018C2F8C2F0A128A11002883010A120C
:040FFC008A11852FA2
:02400E00FB3F76
:00000001FF
