:020000040000FA
:100000000A128A11FC2FFF1B0D2883137F188317F8
:100010000008840A0319FF0A080000308A00040857
:10002000840A820700344C344D3433343534203460
:10003000543445344D3450342034533445344E34E4
:1000400053344F3452340034543445344D345034E6
:1000500045345234413454345534523445343A34AE
:06006000003443340034BB
:100B3800831603139F17831203131F149F121F1684
:100B48009F110800831603138801091189100A12DE
:100B58008A110F270A128A1108000A128A11A6257B
:100B68000A128A110A128A119C250A128A1108008F
:100B7800F500F00174080A128A115B260A128A111C
:100B8800F001F00A75080A128A115B260A128A1106
:100B98000800831203131F151F19D32DD42DD02D30
:100BA8001E08F300831603131E08F2007308F100F1
:100BB8007208F0000800F401F501701CE42DE52D21
:100BC800EB2D7208F4070318F50A7308F5070130CE
:100BD8000310F20DF30DFF3E031DEC2D0130031041
:100BE800F10CF00CFF3E031DF32D70087104031D7A
:100BF800FE2DFF2DE12D7508F1007408F0000800A6
:100C08000A128A11B1250A128A110130F4008030C3
:100C1800F5008030F6000A128A112C260A128A1171
:100C28000A128A11CD250A128A1171088312031338
:100C3800A8007008A7002808A1002708A0000A1229
:100C48008A1172270A128A11142E0A128A11002890
:100C5800F00176080A128A115B260A128A114A2EB6
:100C6800F001F00A7508FF00740884000A128A115E
:100C780003200A128A110A128A115B260A128A11A3
:100C88000130F4070318F50A0030F50775088312D8
:100C98000313FF00740884000A128A1103200A1241
:100CA8008A11003A031D592E5A2E342E0800F300DB
:100CB80070185F2E632E831203130915662E831294
:100CC800031309117308F03988008914A630F1005C
:100CD800F10B6C2E000083120313891073080F396F
:100CE800F10003300310F10DFF3E031D762E0310B3
:100CF800710D88008914A630F100F10B812E0000D7
:100D08008312031389101B30F2009E30F100F10B9F
:100D18008B2EF20B8B2E000008007008710403194B
:100D2800962E972EC62EF501F50AA52E0130031032
:100D3800F00DF10DFF3E031D9B2E0130F4007408E9
:100D4800F507F11FA82EA92E9A2E71087302031D0C
:100D5800AF2E70087202031CB22EB32EB92E700883
:100D6800F2027108031CF303F30201300310F10CC3
:100D7800F00CFF3E031DBA2E0130F502031DC52EEF
:100D8800C62EA92E7308F1007208F0000800FB01B6
:100D9800FC01760877040319D22ED32E0A2FFD0101
:100DA800FD0AE12E01300310F60DF70DFF3E031D7D
:100DB800D72E0130FA007A08FD07F71FE42EE52E3A
:100DC800D62E01300310FB0DFC0DFF3E031DE62E51
:100DD80077087902031DF22E76087802031CF52E97
:100DE800F62EFD2E7608F8027708031CF903F9029F
:100DF8007B1401300310F70CF60CFF3E031DFE2E8A
:100E08000130FD02031D092F0A2FE52E7C08F7008B
:100E18007B08F6000800C330F500CD30F400F40B71
:100E2800132FF50B132FF00133300A128A115B26AA
:100E38000A128A111B30F5009E30F400F40B222FA1
:100E4800F50B222F0000F00133300A128A115B26BD
:100E58000A128A11A630F400F40B302F0000F001BA
:100E680033300A128A115B260A128A113B2F3C2F53
:100E78000000F00102300A128A115B260A128A1158
:100E8800A630F400F40B462F0000F00128300A12B7
:100E98008A115B260A128A11A630F400F40B522F2D
:100EA8000000F00101300A128A115B260A128A1129
:100EB8000430F5003D30F400F40B602FF50B602F83
:100EC800652FF0010C300A128A115B260A128A116A
:100ED800A630F400F40B6E2F000008006430F60012
:100EE8000030F700831203132108F1002008F000F6
:100EF8003130F2000030F3000A128A11DF250A129D
:100F08008A117108F9007008F8000A128A11CB26B4
:100F18000A128A11770883120313A1007608A00029
:100F28001230F4008030F500C030F6000A128A1141
:100F38002C260A128A11013083120313A5000030EF
:100F4800A6002508223E84000A30F0000030F10097
:100F58002108F3002008F2000A128A1191260A12C9
:100F68008A117008303E831380000A30F600003082
:100F7800F700831203132108F9002008F8000A1269
:100F88008A11CB260A128A11770883120313A1004B
:100F98007608A000FF30A5070318A60AFF30A607A9
:100FA800250A031DDB2F260A031DDB2FDC2FA52FA7
:100FB800A4012230F4000030F500CC30F6000A120B
:100FC8008A112C260A128A11CE30F400DF300A1258
:100FD8008A11BC250A128A111F30F4008030F500EE
:100FE800CF30F6000A128A112C260A128A1108003C
:080FF80083010A128A11042E84
:02400E00FB3F76
:00000001FF
