:020000040000FA
:060000000A128A110C280F
:10000800FE00030EF9000A08FA000A128A11B9283C
:100018000A128A110F280A128A1104210A128A1157
:10002800F6000A128A1105210A128A11F7000A122B
:100038008A1106210A128A11F800F001F101F20171
:10004800F301F401F50183010A128A112B280A121F
:100058008A11E1200A128A1101300A128A119120AC
:100068000A128A1183120313A2003E302206031DCE
:100078003E283F284E28F401F5010030750205306E
:1000880003197402031849284A284E286430F600D8
:100098000030F70000307502053003197402031CA4
:1000A800562857285B280A30F6000030F7007708F2
:1000B800A1007608A0000A128A1168200A128A1183
:1000C80030280A128A110C2883120313210873029C
:1000D800031D7028200872020318732874287628D4
:1000E8000814812873082102031D7C287208200245
:1000F80003187F288028812808100130F207031888
:10010800F30A0030F307653072067304031D8D2867
:100118008E289028F201F301080083120313A0002F
:100128002008031D982899289C2806083F39B828D4
:100138003F300605FB003F307B060319A428A5289D
:10014800AC2878080319A928AA28AC28F801992806
:100158003F300605FB003F307B06031DB428B52859
:10016800B728F801F80A3F3008000B1DBC28BD2845
:10017800DA28831203130108083E81000130F007D2
:100188000318F10A0030F107203070064E300319C9
:100198007106031DD028D128D928F001F1010130BA
:1001A800F4070318F50A0030F5070B117A088A00DE
:1001B800790E8300FE0E7E0E090083120313880158
:1001C8008316031388010A128A11FE200A128A1163
:1001D8000A128A11F4200A128A110B178B170800C9
:1001E80083160313811281150630831203138100CD
:1001F8008B1608008316031306083F38860008008C
:060208000A340034013449
:02400E00FB3F76
:00000001FF
