:020000040000FA
:100000000A128A11E22FFF1B0D2883137F18831712
:100010000008840A0319FF0A080000308A00040857
:10002000840A820700345534413452345434203425
:100030005434653473347434203443346F3464344A
:0800400065340A340D3400346C
:1008CC0064008001840A0406031900340406672CB2
:1008DC00831203138C1E732C742C6E2C8C121A081E
:1008EC000800831603138801091189100A128A1152
:1008FC0002260A128A110800F000700883120313F2
:10090C0099000C1E8A2C8B2C872C0C120800F001E1
:10091C0001300A128A1178250A128A110430F50066
:10092C003D30F400F40B982CF50B982C9D2C080002
:10093C000A128A1177240A128A11003083120313C7
:10094C00A3000030A2002530A1008030A0000A12C4
:10095C008A1148250A128A1101300A128A11D924E7
:10096C000A128A110B178B1708007008F200710815
:10097C00F300C62C0130F2070318F30A0030F3071A
:10098C00720884008317731C83130008031DCF2C7B
:10099C00D02CC02C70087202F0007108031C710A74
:1009AC007302F1000800F200EB2C720884000A12AA
:1009BC008A110D200A128A110A128A1182240A1233
:1009CC008A110130F1007108F207720884000A12D2
:1009DC008A110D200A128A11003A031DF62CF72CED
:1009EC00DB2C0800F600F00174080A128A11782535
:1009FC000A128A110F2DF001F00A76088400000803
:100A0C000A128A1178250A128A110130F50075082C
:100A1C00F6077608840083130008031D162D172D86
:100A2C00012D0800F200F30173087207F000700842
:100A3C0084000A128A116E240A128A11831780000C
:100A4C0073087207F000700884000008F100013090
:100A5C00F0007008F3070A3071060319362D372D94
:100A6C003D2D0D307106031D3C2D3D2D1A2D0130F1
:100A7C00F0007008F30773087207F0007008840028
:100A8C008001080083120313981718162008A4007D
:100A9C002108A5002208A6002308A7000430031093
:100AAC00A40DA50DA60DA70DFF3E031D552D270862
:100ABC00F3002608F2002508F1002408F0000130AC
:100ACC00F7003130F6002D30F5000030F4000A123A
:100ADC008A1165260A128A117008FF3E83160313C9
:100AEC0099000800F30070187C2D802D83120313DD
:100AFC000915832D8312031309117308F03988002B
:100B0C008914A630F100F10B892D00008312031318
:100B1C00891073080F39F10003300310F10DFF3EFB
:100B2C00031D932D0310710D88008914A630F1005C
:100B3C00F10B9E2D00008312031389101B30F20061
:100B4C009E30F100F10BA82DF20BA82D000008002F
:100B5C007408FA007508FB00E02D0130F802003033
:100B6C00031CF903F902770883120313A10076081A
:100B7C00A000F60A0319F70A2108FF0020088400D8
:100B8C000A128A1103200A128A11A2007B08A400FF
:100B9C007A08A300FA0A0319FB0A230884008317B6
:100BAC00241C8313220880000008031DDE2DDF2D7A
:100BBC00E02DF32D78087904031DE52DE62DB32DDA
:100BCC00F32D7A08840083177B1C8313800101307A
:100BDC00FA070318FB0A0030FB070130F80200305B
:100BEC00031CF903F902780A031D002E790A031D70
:100BFC00002E012EE72D0800C330F500CD30F40097
:100C0C00F40B062EF50B062EF00133300A128A1166
:100C1C0078250A128A111B30F5009E30F400F40B73
:100C2C00152EF50B152E0000F00133300A128A1127
:100C3C0078250A128A11A630F400F40B232E00003A
:100C4C00F00133300A128A1178250A128A112E2EDD
:100C5C002F2E0000F00102300A128A1178250A1298
:100C6C008A11A630F400F40B392E0000F001283064
:100C7C000A128A1178250A128A11A630F400F40B94
:100C8C00452E0000F00101300A128A1178250A1253
:100C9C008A110430F5003D30F400F40B532EF50BA3
:100CAC00532E582EF0010C300A128A1178250A1294
:100CBC008A11A630F400F40B612E000008000030FD
:100CCC00FC000030FB000030FA000030F900730823
:100CDC007204710470040319742E752EC22EFD015A
:100CEC00FD0A852E0130F8000310F00DF10DF20D08
:100CFC00F30DF80B7A2E0130F8007808FD07F31F7E
:100D0C00882E892E782E0130F8000310F90DFA0D7B
:100D1C00FB0DFC0DF80B8B2E73087702031DA02E18
:100D2C0072087602031DA02E71087502031DA02EF9
:100D3C0070087402031CA32EA42EB32E7008F402A8
:100D4C007108031C710FF5027208031C720FF60276
:100D5C007308031C730FF702791401300310F30CA2
:100D6C00F20CF10CF00CFF3E031DB42E0130FD0211
:100D7C00031DC12EC22E892E7C08F3007B08F200C5
:100D8C007A08F1007908F0000800903084005A309D
:100D9C00FF0083178001840AFF0BCF2E29308400BB
:100DAC001130FF0083138001840AFF0BD82E3A30D8
:100DBC0084001130FF008001840AFF0BE12E8312A6
:100DCC000313CD01CE01CB01CC010A128A119E2452
:100DDC000A128A1190300A128A1118250A128A11E5
:100DEC00982F00304E02103003194D020318FF2EBD
:100DFC00002F0C2F4D08903E840083170008A8008C
:100E0C004D08293E840028088313800000304E02D0
:100E1C00103003194D02031C142F152F2B2F0030EB
:100E2C004E02203003194D0203181D2F1E2F2B2F9D
:100E3C004D08903E840083170008A8004D08F03E32
:100E4C003A3E840028088313800000304E02203084
:100E5C0003194D02031C332F342F922F4B084C04D3
:100E6C00031D392F3A2F852F2930F4000030F5005F
:100E7C001130F6008030F7002930F0000030F1001E
:100E8C000A128A11BB240A128A117108F90070081F
:100E9C00F8000A128A11AE250A128A112930F400C0
:100EAC000030F5003A30F6000030F7001030F80052
:100EBC000030F9000A128A11AE250A128A113A3052
:100ECC00F4000030F5001130F6008030F7003A30B5
:100EDC00F0000030F1000A128A11BB240A128A11A8
:100EEC007108F9007008F8000A128A11AE250A126E
:100EFC008A11013083120313CB000030CC004D0853
:100F0C00903E840083170008A8004D08E03E3A3E4E
:100F1C0084002808831380000130CD070318CE0A03
:100F2C000030CE079030F0000130F1000A128A1127
:100F3C00BB240A128A117108831203134E02031D7B
:100F4C00A92F70084D02031CAC2FAD2FF72EB90141
:100F5C00CA019030F4000130F5001130F6008030F9
:100F6C00F7009030F0000130F1000A128A11BB2416
:100F7C000A128A117108F9007008F8000A128A1115
:100F8C00AE250A128A110A128A118D240A128A11AC
:100F9C008030F40029300A128A11F8240A128A11BE
:100FAC00C030F4003A300A128A11F8240A128A115D
:100FBC00F02E0A128A11002883134F3084006030FF
:100FCC000A128A1166240A128A11A0308400B130E8
:100FDC000A128A1166240A128A11831710308400AF
:100FEC006A300A128A1166240A128A1183010A12C3
:040FFC008A11CB2E5D
:02400E00FB3F76
:00000001FF
