:020000040000FA
:100000000A128A11E02FFF1B0D2883137F18831714
:100010000008840A0319FF0A080000308A00040857
:10002000840A8207003420342034733463347234F9
:100030006F346C346C3469346E346734203420345B
:1000400020342034203400347334633472346F34F9
:100050006C346C3469346E34673420346D346134FC
:100060007234713475346534003465346E347434EC
:1000700065347234203474346834653420346E341A
:1000800075346D3462346534723400346D347334D5
:0600900067343A3400342D
:10076A00013464008001840A040603190034040673
:10077A00B72B831603138801091189100A128A11EB
:10078A00C1240A128A1108008316031306080738BF
:10079A0086000808F039880081138312031388152C
:1007AA000815881408140800F500F00174080A12E4
:1007BA008A118B240A128A11F001F00A75080A12AA
:1007CA008A118B240A128A110800F00101300A12D8
:1007DA008A118B240A128A110430F5003D30F40084
:1007EA00F40BF52BF50BF52BFA2B08007E088A0083
:1007FA007F0882000A128A11FB230A128A118000DA
:10080A00840A04087D0603190034FF0A0319FE0A44
:10081A00FF2B0134003401340034203420342034D6
:10082A00203420342034203420342034203420341E
:10083A002034203420342034203400340A128A111F
:10084A00BE230A128A110A128A11C9230A128A11AC
:10085A002330F4008030F5008030F6000A128A1145
:10086A005C240A128A110800F2000A128A1124254D
:10087A000A128A11F3007208031D442C452C472CD6
:10088A0073085B2C730A03194B2C4C2C532C7A08D3
:10089A000319502C512C532CFA01452C730A031DB1
:1008AA00572C582C5A2CFA01FA0AFF300800F0018A
:1008BA0076080A128A118B240A128A117A2CF001FC
:1008CA00F00A7508FF00740884000A128A110320CE
:1008DA000A128A110A128A118B240A128A11013009
:1008EA00F4070318F50A0030F50775088312031395
:1008FA00FF00740884000A128A1103200A128A115E
:10090A00003A031D892C8A2C642C0800F300701805
:10091A008F2C932C831203130915962C831203131D
:10092A0009117308F03988008914A630F100F10B17
:10093A009C2C000083120313891073080F39F100ED
:10094A0003300310F10DFF3E031DA62C0310710D99
:10095A0088008914A630F100F10BB12C0000831233
:10096A00031389101B30F2009E30F100F10BBB2CEF
:10097A00F20BBB2C00000800C330F500CD30F400A8
:10098A00F40BC52CF50BC52CF00133300A128A1171
:10099A008B240A128A111B30F5009E30F400F40BE6
:1009AA00D42CF50BD42C0000F00133300A128A1132
:1009BA008B240A128A11A630F400F40BE22C0000F0
:1009CA00F00133300A128A118B240A128A11ED2C93
:1009DA00EE2C0000F00102300A128A118B240A124E
:1009EA008A11A630F400F40BF82C0000F00128302C
:1009FA000A128A118B240A128A11A630F400F40B07
:100A0A00042D0000F00101300A128A118B240A1207
:100A1A008A110430F5003D30F400F40B122DF50B69
:100A2A00122D172DF0010C300A128A118B240A128A
:100A3A008A11A630F400F40B202D0000080083125E
:100A4A00031388110815881408146430F000003064
:100A5A00F100FF30F0070318F10AFF30F107700ABE
:100A6A00031D3B2D710A031D3B2D3C2D2E2D831298
:100A7A0003130618412D422D442D0130CF2D86181F
:100A8A00472D482D4A2D0230CF2D06194D2D4E2DBA
:100A9A00502D0330CF2D881508118814081464309E
:100AAA00F0000030F100FF30F0070318F10AFF30C0
:100ABA00F107700A031D652D710A031D652D662D48
:100ACA00582D8312031306186B2D6C2D6E2D0430CE
:100ADA00CF2D8618712D722D742D0530CF2D061944
:100AEA00772D782D7A2D0630CF2D88150815881088
:100AFA0008146430F0000030F100FF30F0070318EA
:100B0A00F10AFF30F107700A031D8F2D710A031DC8
:100B1A008F2D902D822D831203130618952D962D55
:100B2A00982D0730CF2D86189B2D9C2D9E2D083091
:100B3A00CF2D0619A12DA22DA42D0930CF2D881550
:100B4A000815881408106430F0000030F100FF30F6
:100B5A00F0070318F10AFF30F107700A031DB92DD7
:100B6A00710A031DB92DBA2DAC2D83120313061871
:100B7A00BF2DC02DC22D2A30CF2D8618C52DC62DCA
:100B8A00C82D0030CF2D0619CB2DCC2DCE2D2330DC
:100B9A00CF2DFF3008000A128A1123240A128A1163
:100BAA0001300A128A1139240A128A118312031394
:100BBA00CE0003304E06031DE32DE42DF62DA201CF
:100BCA00A3010A128A11EA230A128A111230F400C6
:100BDA008030F5008030F6000A128A115C240A126D
:100BEA008A110430831203134E06031DFD2DFE2DB8
:100BFA00282E0130A2000030A3000A128A11EA232B
:100C0A000A128A112330F4008030F5008030F60091
:100C1A000A128A115C240A128A113430F4008030D4
:100C2A00F500C030F6000A128A115C240A128A11F1
:100C3A003930F4000030F500C430F6000A128A1187
:100C4A005C240A128A118312031322032304031D4C
:100C5A002F2E302E302F200821040319352E362E40
:100C6A005E2EB501B6013030B9002330F400803071
:100C7A00F5008030F6000A128A115C240A128A11E1
:100C8A003430F4008030F500C030F6000A128A11C0
:100C9A005C240A128A11C430F4008312031339083F
:100CAA000A128A11D9230A128A1183120313A00184
:100CBA00A1014E03031D622E632E932E0130F7000D
:100CCA003508393E84007708831380073508393E92
:100CDA0084003A300002031C732E742E792E3508D4
:100CEA00393E8400303080003508393E8400303087
:100CFA0000020318812E822E872E3508393E840081
:100D0A00393080003508C43EF4003508393E840085
:100D1A0000080A128A11D9230A128A110230831290
:100D2A0003134E06031D9A2E9B2EC92E3508393EF3
:100D3A0084000130831380023508393E84003A303A
:100D4A000002031CA92EAA2EAF2E3508393E8400B4
:100D5A00303080003508393E8400303000020318F4
:100D6A00B72EB82EBD2E3508393E840039308000A2
:100D7A003508C43EF4003508393E840000080A12DA
:100D8A008A11D9230A128A110530831203134E06D7
:100D9A00031DD02ED12EFF2E0130B5070318B60A37
:100DAA000030B6073508393E84003030831380009E
:100DBA003608803AFF0080307F02031DE62E0B3092
:100DCA003502031CE92EEA2EF02E0A308312031391
:100DDA00B5000030B600831203133508C43EF40090
:100DEA003508393E8400831300080A128A11D92370
:100DFA000A128A110630831203134E06031D062FA8
:100E0A00072F242F3508393E8400303083138000A1
:100E1A003508C43EF40000300A128A11D9230A1296
:100E2A008A11FF3083120313B5070318B60AFF307D
:100E3A00B607B61F212F222F242FB501B601350878
:100E4A00393E840083130008F7003508243E8400E5
:100E5A0077088000D52D22082304031D352F362F4D
:100E6A00D52DB4010130F4008030F5008030F60051
:100E7A000A128A115C240A128A11831203134E037E
:100E8A00031D482F492F4B2FB701B80102304E06D8
:100E9A00031D502F512F552F0130B7000030B800D5
:100EAA0037083804031D5A2F5B2F942F0230F9009C
:100EBA004530F800A930F700F70B612FF80B612FC6
:100ECA00F90B612F682F831203133308C9000F30FF
:100EDA00CA000030CB00831203134A08233E840061
:100EEA0083130008F7004A08243E8400770880002C
:100EFA00FF30CA070318CB0AFF30CB074B08803AEA
:100F0A00FF0080307F02031D8C2F01304A02031834
:100F1A008F2F902F702F831203134908A4003703D1
:100F2A003804031D992F9A2FD12F0230F90045302A
:100F3A00F800A930F700F70BA02FF80BA02FF90B38
:100F4A00A02FA72F831203132408C900CC01CD01B7
:100F5A00831203134C08253E840083130008F7000C
:100F6A004C08243E8400770880000130CC0703181F
:100F7A00CD0A0030CD074D08803AFF0080307F024D
:100F8A00031DC92F0F304C02031CCC2FCD2FAD2FC0
:100F9A00831203134908B3002430F4000030F5002B
:100FAA00C030F6000A128A115C240A128A11D52D61
:100FBA000A128A11002883133530FD000430FE001E
:100FCA000E30FF00203084000A128A11FF230A1211
:100FDA008A110A128A11B5230A128A11FA003530C7
:100FEA00840049300A128A11B6230A128A1183012F
:060FFA000A128A11D02D3D
:02400E00FB3F76
:00000001FF
