:020000040000FA
:060000000A128A110C280F
:10000800FE00030EF1000A08F2000A128A116A2B98
:100018000A128A110F28F901FA0183010A128A11BA
:100028001A2B8312031335088039BF003508B60030
:100038003607C600B41F212822282328461446085C
:100048000319272828283828460A031D2C282D2874
:1000580035280030B5000030B4000030B30000305F
:10006800B200B417B50140280030B5000030B40024
:100078000030B3000030B20031088039B6003608CD
:10008800BF063108B6003607C700B01F4C284D28F8
:100098004E28471447080319522853286328470A4B
:1000A800031D5728582860280030B1000030B000E0
:1000B8000030AF000030AE00B017B1016B2800303F
:1000C800B1000030B0000030AF000030AE003108A1
:1000D80030042F042E04031D722873288C28003046
:1000E800B5000030B4000030B3000030B2008030FA
:1000F800B4047F30B5043F08B6003608B5043508A7
:10010800B1003408B0003308AF003208AE00E72968
:100118004608031D902891289A280030B100003025
:10012800B0000030AF000030AE00E7294608B60046
:10013800B7013708B90047083602B800031CB903ED
:1001480038087F3EC00039080318013E003EC10050
:100158003508BE003408BD003308BC003208BB00B7
:100168000030B5000030B4000030B3000030B200F9
:100178000030C5000030C4000030C3000030C200A9
:10018800C701102947080319CA28CB28EB280130D2
:10019800B6000310BB0DBC0DBD0DBE0DB60BCD28B2
:1001A8000130B6000310B20DB30DB40DB50DB60B8A
:1001B800D628C51FE028E128E22832140130B6000D
:1001C8000310C20DC30DC40DC50DB60BE4283108CC
:1001D8003E02031DF92830083D02031DF9282F08A7
:1001E8003C02031DF9282E083B02031CFC28FD28AD
:1001F8000C2945172E08BB022F08031C2F0FBC0221
:100208003008031C300FBD023108031C310FBE0239
:100218000130B6003608C7071A304702031C1529F3
:100228001629C6283E083D043C043B0403191D2931
:100238001E293D2942143D290130B6000310B20D94
:10024800B30DB40DB50DB60B2229C51F2C292D29C8
:100258002E2932140130B6000310C20DC30DC40D8F
:10026800C50DB60B3029FF30C0070318C10AFF308F
:10027800C107B41F402941292029C701C51F4529A5
:1002880046296229FF304205B600FF304305B70012
:10029800FF304405B8007F304505B90039083804F7
:1002A80037043604031959295A295D29C701C70A91
:1002B8006229321C6029612962295A2947080319D1
:1002C8006629672998290130B207003003180130E0
:1002D800B307003003180130B407003003180130A9
:1002E800B507351C7829792998293208B6003308CA
:1002F800B7003408B8003508B9000130BA00390D24
:10030800B90CB80CB70CB60CBA0B83293908B50070
:100318003808B4003708B3003608B2000130C00707
:100328000318C10A0030C1074108803AFF00803035
:100338007F02031DA129FF304002031CA429A5291F
:10034800B329FF3083120313C0000030C10000300E
:10035800B5000030B4000030B3000030B2008312A2
:1003680003134108803AFF0080307F02031DBE2935
:10037800013040020318C129C229CF29831203136F
:10038800C001C1010030B5000030B4000030B30036
:100398000030B200BF01831203134008C600461C98
:1003A800D629D729D929B417DD297F30B6003608D0
:1003B800B4054608B6000310360CB5003F08B60071
:1003C8003608B5048328080083120313A8002808F8
:1003D8000319EF29F029042AA31FF329F429042A71
:1003E8002009AA002109AB002209AC002309AD00AD
:1003F800AA0A0319AB0A0319AC0A0319AD0A0C2A95
:100408002308AD002208AC002108AB002008AA0090
:100418002308220421042004031D132A142A1D2A58
:100428000030A3000030A2000030A1000030A0007E
:10043800A12A9630A9002D2A0130A4002408A90772
:1004480001300310AD0CAC0CAB0CAA0CFF3E031D25
:10045800252AFE302D05031D322A332A202A4F2A49
:100468000130A4002408A9070130AA0700300318A6
:100478000130AB07003003180130AC070030031817
:100488000130AD0701300310AD0CAC0CAB0CAA0C5D
:10049800FF3E031D472AFF302D05031D542A552A08
:1004A800342A612A0130A9020130A4000310AA0DE0
:1004B800AB0DAC0DAD0DA40B5A2AAC1B642A652AF2
:1004C8006B2A0230290203186A2A6B2A562A29182D
:1004D8006E2A6F2A772AFF30AA05FF30AB057F30D6
:1004E800AC05FF30AD050310A90C2908A400A5012F
:1004F800A601A70118300310A40DA50DA60DA70D80
:10050800FF3E031D7F2A2408AA042508AB042608F9
:10051800AC042708AD0428080319932A942A992AB9
:10052800A31F972A982A992AAD172D08A3002C08EB
:10053800A2002B08A1002A08A000080003108312BB
:1005480003134A0D4B0DF8007808031DAC2AAD2A99
:10055800B62A0030CB000030CA000030C900003095
:10056800C800192B4808CC004908CD004A08CE001D
:100578004B08CF001F300310CF0CCE0CCD0CCC0C89
:10058800FF3E031DBF2A4C08F700CA17FF30C805F5
:10059800FF30C905FF30CA050030CB059630F80298
:1005A800F81FD72AD82AF22A7808803A973E0318E3
:1005B800DE2ADF2AE02AAD2A01300310CB0CCA0C50
:1005C800C90CC80CFF3E031DE12A0130CC004C08C1
:1005D800F807031DF02AF12AE02A092B20307802B7
:1005E800031CF72AF82A042BAD2A0130CC0003108B
:1005F800C80DC90DCA0DCB0DCC0BFB2A0130F80272
:100608007808031D082B092BF92A770803190D2BE5
:100618000E2B192BC809C909CA09CB09C80A03191D
:10062800C90A0319CA0A0319CB0A08000A128A114F
:10063800C1230A128A110A128A11AF230A128A11D7
:10064800730883120313D0007408D100D201D301B8
:100658005308A3005208A2005108A1005008A000A6
:1006680000300A128A11E8210A128A118312031330
:100678002308B5002208B4002108B3002008B200FE
:100688004130B1002330B000AE30AF001430AE00BE
:100698000A128A1115200A128A11831203133108CB
:1006A800CB003008CA002F08C9002E08C8000A125B
:1006B8008A11A2220A128A11831203134908D5004B
:1006C8004808D4001F2B0A128A110C280B1D6D2B09
:1006D8006E2BA82B831203130108083E81007A08A9
:1006E800803AF0005508803A7002031D7D2B5408AB
:1006F80079020318802B812B852B8312031308148E
:10070800982B831203135508803AF0007A08803A30
:100718007002031D912B790854020318942B952B12
:10072800982B8312031308100130F9070318FA0AEB
:100738000030FA07653079067A04031DA42BA52B2F
:10074800A72BF901FA010B1172088A00710E8300B8
:10075800FE0E7E0E0900831203131F151F19B52BF9
:10076800B62BB22B1E08F600831603131E08F500DD
:100778007608F4007508F300080083120313880153
:100788008316031388010A128A11D3230A128A11C5
:100798000A128A11DD230A128A118B1708008316A0
:1007A80003138112811506308312031381008B16FF
:1007B8000800831603139F17831203131F140800DE
:02400E00FB3F76
:00000001FF
