:020000040000FA
:060000000A128A11EC2F28
:1006EC008316031306083F38860008000A128A1185
:1006FC00B0230A128A1183160313111408000A126C
:10070C008A11B0230A128A118316031311150800DB
:10071C000A128A1185230A128A110A128A117C2361
:10072C000A128A110800F0000A128A11B0230A1268
:10073C008A117008831203139300080083160313A5
:10074C008801050803398500831203130508033952
:10075C0085000800831603131419B52BB62BB02B88
:10076C0011081F39031DBB2BBC2BB02B08003F34C9
:10077C0006345B344F3466346D347D3407347F3447
:10078C006F3401343F343F343F343F347E088A00A9
:10079C007F0882000A128A11CC230A128A11800067
:1007AC00840A04087D0603190034FF0A0319FE0AA3
:1007BC00D02B00300A128A1188240A128A11831253
:1007CC000313A20022087F39A2002208A0000030E7
:1007DC000A128A1115240A128A110800F0000A1252
:1007EC008A11B0230A128A118316031391150A1267
:1007FC008A11B0230A128A11831203131308F10011
:10080C007003031D0A2C0B2C0F2C8316031391164B
:10081C00122C8316031391121116710808008312FF
:10082C000313A1000A128A117C230A128A11D030F8
:10083C000A128A1199230A128A11831203132108AE
:10084C000A128A1199230A128A118312031320089F
:10085C000A128A1199230A128A110A128A11852303
:10086C000A128A110800F801F901741C3E2C3F2C65
:10087C00452C7608F8070318F90A7708F9070130B0
:10088C000310F60DF70DFF3E031D462C013003102F
:10089C00F50CF40CFF3E031D4D2C74087504031D60
:1008AC00582C592C3B2C7908F5007808F4000800DA
:1008BC00F1007108031D632C642C692C8312031343
:1008CC0006083F39872C3F30831203130605F000CE
:1008DC003F3070060319732C742C7B2C41080319C0
:1008EC00782C792C7B2CC101642C3F300605F00050
:1008FC003F307006031D832C842C862CC101C10A49
:10090C003F300800F2000A128A117C230A128A1165
:10091C00D0300A128A1199230A128A1172080A120B
:10092C008A1199230A128A110A128A118E230A1229
:10093C008A11D1300A128A1199230A128A110030B5
:10094C000A128A11F4230A128A11F3000A128A116C
:10095C0085230A128A117308080083120313941555
:10096C002008A4002108A5002208A6002308A7003F
:10097C0002300310A40DA50DA60DA70DFF3E031DFF
:10098C00BF2C2708F3002608F2002508F1002408E4
:10099C00F0000130F7003130F6002D30F50000305A
:1009AC00F4000A128A11B9250A128A117008FF3E46
:1009BC008316031393008312031394160800700814
:1009CC0071040319EA2CEB2C1A2DF501F50AF92CFC
:1009DC0001300310F00DF10DFF3E031DEF2C013023
:1009EC00F4007408F507F11FFC2CFD2CEE2C71089B
:1009FC007302031D032D70087202031C062D072DB4
:100A0C000D2D7008F2027108031CF303F302013080
:100A1C000310F10CF00CFF3E031D0E2D0130F502FE
:100A2C00031D192D1A2DFD2C7308F1007208F0000E
:100A3C000800FB01FC01760877040319262D272DED
:100A4C005E2DFD01FD0A352D01300310F60DF70D5D
:100A5C00FF3E031D2B2D0130FA007A08FD07F71F0E
:100A6C00382D392D2A2D01300310FB0DFC0DFF3EC6
:100A7C00031D3A2D77087902031D462D760878025E
:100A8C00031C492D4A2D512D7608F8027708031CBA
:100A9C00F903F9027B1401300310F70CF60CFF3E3E
:100AAC00031D522D0130FD02031D5D2D5E2D392DD0
:100ABC007C08F7007B08F6000800F800F9017908BB
:100ACC007807F00070088400831300088312031366
:100ADC0088000430F000790A752D0310F00DFF3EEC
:100AEC00031D732D05080339700485000030F700D1
:100AFC000030F6000130F5009030F4000130F000C9
:100B0C000030F1000030F2000030F3007008F40205
:100B1C007108031C710F932D942DF5027208031CA0
:100B2C00720F992D9A2DF6027308031C730F9F2DCB
:100B3C00A02DF702740A031DAD2D750A031DAD2DF2
:100B4C00760A031DAD2D770A031DAD2DAE2D842D18
:100B5C000130F0007008F90704307902031CB72D3E
:100B6C00B82D652D08000030FC000030FB00003073
:100B7C00FA000030F9007308720471047004031950
:100B8C00C82DC92D162EFD01FD0AD92D0130F800F6
:100B9C000310F00DF10DF20DF30DF80BCE2D01300D
:100BAC00F8007808FD07F31FDC2DDD2DCC2D01306E
:100BBC00F8000310F90DFA0DFB0DFC0DF80BDF2DF1
:100BCC0073087702031DF42D72087602031DF42DB1
:100BDC0071087502031DF42D70087402031CF72DA7
:100BEC00F82D072E7008F4027108031C710FF50222
:100BFC007208031C720FF6027308031C730FF702C2
:100C0C00791401300310F30CF20CF10CF00CFF3ED4
:100C1C00031D082E0130FD02031D152E162EDD2D91
:100C2C007C08F3007B08F2007A08F1007908F000E8
:100C3C0008000A128A11A4230A128A110A128A11B4
:100C4C0076230A128A11003083120313A300013099
:100C5C00A2008630A100A030A0000A128A11B32491
:100C6C000A128A110A128A11DF230A128A11013020
:100C7C000A128A1188240A128A1183120313A800FB
:100C8C00A9012808F4002908F500E830F600033023
:100C9C00F7000A128A1139240A128A117408831275
:100CAC000313AA007508AB0002300A128A118824BB
:100CBC000A128A1183120313AC00AD012C08F40044
:100CCC002D08F5006430F6000030F7000A128A1186
:100CDC0039240A128A117408831203132A07AE00EE
:100CEC0075080318750A2B07AF0003300A128A1116
:100CFC0088240A128A1183120313B000B101300840
:100D0C00F4003108F5000A30F6000030F7000A1242
:100D1C008A1139240A128A117408831203132E07BC
:100D2C00B20075080318750A2F07B30004300A12B5
:100D3C008A1188240A128A11831203133207C600FF
:100D4C000030031801303307C70008000A128A115B
:100D5C001F260A128A11C83083120313B500013002
:100D6C000A128A115E240A128A1183120313B60026
:100D7C0000300A128A115E240A128A11831203139C
:100D8C00B4003E303606031DCC2ECD2EDF2E0130A6
:100D9C00C6070318C70A0030C707273047021030B0
:100DAC0003194602031CDB2EDC2E612FC601C70182
:100DBC00612F3D303606031DE42EE52E612F0A30DF
:100DCC00F0000030F1004708F3004608F2000A1268
:100DDC008A11E5240A128A11700883120313A000E9
:100DEC0004300A128A1115240A128A110A30F600EC
:100DFC000030F700831203134708F3004608F20093
:100E0C006430F0000030F1000A128A11E5240A1255
:100E1C008A117108F9007008F8000A128A111F254E
:100E2C000A128A11760883120313A00003300A12E7
:100E3C008A1115240A128A116430F6000030F7006A
:100E4C00831203134708F3004608F200E830F00061
:100E5C000330F1000A128A11E5240A128A11710872
:100E6C00F9007008F8000A128A111F250A128A115B
:100E7C00760883120313A00002300A128A1115247B
:100E8C000A128A11E830F6000330F70083120313BC
:100E9C004708F9004608F8000A128A111F250A12A1
:100EAC008A11760883120313A00001300A128A11EA
:100EBC0015240A128A11013083120313B502350A64
:100ECC00031D692F6A2F742FC830B5003E303406CD
:100EDC00031D712F722F742FC601C7010A30F00049
:100EEC000030F1004708F3004608F2000A128A119C
:100EFC00E5240A128A117008373E84008313000817
:100F0C0083120313C5000A30F6000030F7004708BF
:100F1C00F3004608F2006430F0000030F1000A12D1
:100F2C008A11E5240A128A117108F9007008F80078
:100F3C000A128A111F250A128A117608373E84007C
:100F4C008313000883120313C4006430F6000030CE
:100F5C00F7004708F3004608F200E830F0000330D1
:100F6C00F1000A128A11E5240A128A117108F9009B
:100F7C007008F8000A128A111F250A128A117608C5
:100F8C00373E84008313000883120313C300E83038
:100F9C00F6000330F7004708F9004608F8000A127B
:100FAC008A111F250A128A117608373E8400831392
:100FBC00000883120313C20042300A128A116325FF
:100FCC000A128A11B52E0A128A1100288313463090
:100FDC00FD000330FE00BD30FF00373084000A12E4
:100FEC008A11D0230A128A11C601C70183010A1281
:040FFC008A11AC2E7C
:02400E00FB3F76
:00000001FF
