:020000040000FA
:060000000A128A110C280F
:10000800FE00030EF0000A08F1000A168A117A2E83
:100018000A128A110F288313B930FD001230FE002E
:10002800FB30FF00A03084000A168A11C2220A128F
:100038008A116730FD001230FE002430FF00633063
:1000480084000A168A11C2220A128A11B930840061
:10005800CD300A168A1135220A128A1120308400FE
:1000680045300A168A1135220A128A11F901FA0155
:10007800FB0183010A128A11412883160313D70151
:10008800D70A3608CD003708CE003808CF00D0018F
:100098000030D4000030D3000030D2000030D1004E
:1000A8000A168A1145250A128A117430F700883019
:1000B800F80000300A168A11E4240A128A11CD3099
:1000C80083120313C9000030CA00CB010A128A1533
:1000D800FD200A128A110A3083120313C50000306A
:1000E800C6000A168A1199220A128A117308831205
:1000F8000313C8007208C7000A168A1134260A12A8
:100108008A1183120313450883160313D50064303C
:100118005502031C9028912893286330D50001309C
:100128000A168A110A240A128A1183160313D800A0
:100138003E305806031DA128A228BE287E30F200B2
:100148008830F300CD300A168A1198230A128A11D2
:10015800CD3083120313C9000030CA00831603137D
:10016800550883120313CB000A128A15FD200A12C0
:100178008A11E5293D305806031DC328C428F828EC
:10018800063050020318C928CA28F82850088312D4
:100198000313DF005F07A03E840083130008F2000A
:1001A800840A00088403F300CD300A168A119823C4
:1001B8000A128A11013083120313DF005F088316C5
:1001C8000313D007CD3083120313C9000030CA00CF
:1001D80083160313550883120313CB000A128A15DA
:1001E800FD200A128A11E5293B305806031DFD2817
:1001F800FE281A2950080319022903291A2901304F
:10020800D002500883120313DF005F07A03E84006A
:1002180083130008F200840A00088403F300CD3039
:100228000A168A1198230A128A11E62837305806C6
:1002380003191F29202926292F305806031D25298F
:1002480026295A295703031D2A292B295A290A1610
:100258008A1188220A128A11D130F6008730F700F5
:100268008030F8000A168A11B5240A128A11F201A0
:10027800C6300A168A1132230A128A11F2010F3087
:100288000A168A1132230A128A11A530831203131F
:10029800DF00DF0B4D295029023083160313D700E6
:1002A8001030D600831203131215E5291F305806A3
:1002B800031D5F296029E52903305706031D6529B9
:1002C8006629E529CA290A168A1188220A128A117A
:1002D8007930F6008830F7008030F8000A168A1165
:1002E800B5240A128A11043083160313D70040304C
:1002F800D600E5290A168A1188220A128A110530C1
:1003080083160313D7005030D600E5290A168A1140
:1003180088220A128A11063083160313D700603028
:10032800D600E5299030C9008830CA008316031327
:10033800550883120313CB000A128A15FD200A12EE
:100348008A110A168A1188220A128A11083083161D
:100358000313D70054299630C9008830CA00831681
:100368000313550883120313CB000A128A15FD20C4
:100378000A128A110A168A1188220A128A1107306B
:1003880083160313D7007030D600E52983120313B0
:100398003908DF00E0016008003A0319D429E5298B
:1003A8005F08003A03196729013A03197E29033ABD
:1003B80003198A29013A03199629073A0319AF291B
:1003C800E5293E30831603135806031DEC29ED2951
:1003D800042A033057060319F229F329F9290430AE
:1003E8005706031DF829F929042A0A168A118822B2
:1003F8000A128A1183160313D701D70A0A30D600C6
:100408003D305806031D092A0A2AE12B04305706F5
:10041800031D0F2A102AE12B0A168A1188220A12B4
:100428008A11033083160313D7004030D600E12B1E
:1004380083160313550883120313CE00CD300A1612
:100448008A11A9270A128A11052C83160313D701CA
:10045800D70A831203131211F2010C300A168A11FB
:1004680032230A128A11A53083120313DF00DF0B2F
:100478003B2A3E2A052C033083160313D70030305D
:10048800D600831203131211F2010C300A168A11D6
:1004980032230A128A11A53083120313DF00DF0BFF
:1004A800532A562A6F2883160313560883120313F8
:1004B800CE008316031358080A128A1593260A12C7
:1004C8008A1183120313DF00E0016008003A031960
:1004D8006E2A052C5F080A3A0319292A013A0319DA
:1004E8003F2A052C83160313560883120313CE00E4
:1004F8008316031358080A128A157F220A128A11D2
:1005080083120313B900052CF2010C300A168A1164
:1005180032230A128A11831603135608831203130F
:10052800CE008316031358080A128A152B230A12C1
:100538008A11052C8316031356080A168A113424C7
:100548000A128A110C3A031DAA2AAB2AB52A0030CE
:1005580083160313D4000030D3000030D2003230A9
:10056800D100831603135408530452045104031989
:10057800BE2ABF2A052C013083120313DF00003086
:10058800E0000030E1000030E2005F08831603134A
:10059800D102831203136008031C600FD42AD72AE0
:1005A80083160313D202831203136108031C610F1D
:1005B800DE2AE12A83160313D30283120313620887
:1005C800031C620FE82AEB2A83160313D402831252
:1005D8000313831603135408530452045104031DD0
:1005E800F62AF72A052C033083160313D700303078
:1005F800D6000A168A1188220A128A116F280A124E
:100608008A1569250A128A11033083160313D70045
:100618003030D600052C003083160313D400003088
:10062800D3000030D2003230D100D701D70A422B94
:10063800033083160313D7003030D6006F28831693
:100648000313560883120313CE00831603135808A6
:100658000A128A1545240A128A1183120313DF002D
:10066800E0016008003A03193A2B422B5F080A3A66
:1006780003191C2B063A03190F2B422B831603135D
:10068800540853045204510403194B2B4C2B052CCA
:10069800013083120313DF000030E0000030E10076
:1006A8000030E2005F0883160313D102831203139C
:1006B8006008031C600F612B642B83160313D2029E
:1006C800831203136108031C610F6B2B6E2B8316B7
:1006D8000313D302831203136208031C620F752BE2
:1006E800782B83160313D402831203138316031380
:1006F8005408530452045104031D832B842B052CE6
:10070800F72A83160313560883120313CE008316A1
:10071800031358080A128A110D240A128A110C3A76
:10072800031D972B982BA22B003083160313D4009C
:100738000030D3000030D2003230D10001308312B3
:100748000313DF000030E0000030E1000030E20079
:100758005F0883160313D102831203136008031C76
:10076800600FB72BBA2B83160313D202831203131D
:100778006108031C610FC12BC42B83160313D3021A
:10078800831203136208031C620FCB2BCE2B831634
:100798000313D4028312031383160313510A031D90
:1007A800DF2B520A031DDF2B530A031DDF2B540ACC
:1007B800031DDF2BE02B052CF72A570883120313A0
:1007C800DF00E0016008003A0319EB2B052C5F08F5
:1007D800013A03191C2A033A0319572A013A031943
:1007E800762A073A0319882A013A03199E2A033AF6
:1007F8000319032B013A0319852B0F3A0319232BED
:10080800052C203083160313D6006F280A128A118C
:100818000C2883120313D20070304E06031D152CCA
:10082800162C8D2C0A168A110A270A128A110F30E3
:10083800831203133B05CF003A080F39D000D101CA
:100848005008F2005108F3000A30F4000030F500B7
:100858000A168A1173230A128A11831203134F0886
:100868007207A0000030031801307307A1000F3091
:100878003D05CF003C080F39D000D1015008F200E7
:100888005108F3000A30F4000030F5000A168A1106
:1008980073230A128A11831203134F087207A200E6
:1008A8000030031801307307A3000F303F05CF0055
:1008B8003E080F39D000D1015008F2005108F3006A
:1008C8000A30F4000030F5000A168A1173230A1260
:1008D8008A11831203134F087207A400003003180B
:1008E80001307307A5003F30F6008830F7008030EC
:1008F800F8000A168A11B5240A128A1102308312E6
:100908000313AA000030AB00B201B1013F30D2009E
:10091800B00130080319912C922CA02D0D30CB2E4C
:100928002A08CF004F07203E840001308313800738
:10093800840A0318800AB32D0330F2000030F30054
:100948002A08013EF4002B080318013E003EF5007A
:100958000A128A1555210A128A1173088312031381
:10096800AB007208AA00B32D0A168A110A270A12C8
:100978008A110A30F2000030F300831203132108B1
:10098800F5002008F4000A168A117F250A128A1138
:10099800720883120313CF007308D0000A30C50011
:1009A8000030C6002108C8002008C7000A168A11AE
:1009B80034260A128A11831203134508D100033022
:1009C8000310D10DFF3E031DE42C0310510D4F04FD
:1009D800D3007908C0395304F9007908F3000230CC
:1009E8000A168A1114230A128A110A30F2000030FA
:1009F800F300831203132308F5002208F4000A16F3
:100A08008A117F250A128A11720883120313CF00F4
:100A18007308D0000A30C5000030C6002308C8009B
:100A28002208C7000A168A1134260A128A1183126C
:100A380003134508D10003300310D10DFF3E031DF9
:100A4800202D0310510D4F04D3007A088039530428
:100A5800FA007A08F30001300A168A1114230A12E0
:100A68008A110A30F2000030F300831203132508BC
:100A7800F5002408F4000A168A117F250A128A1143
:100A8800720883120313CF007308D0000A30C50020
:100A98000030C6002508C8002408C7000A168A11B5
:100AA80034260A128A11831203134508D100033031
:100AB8000310D10DFF3E031D5C2D0310510D4F0493
:100AC800D3007B0880395304FB007B08F300003017
:100AD8000A168A1114230A128A110A168A11882200
:100AE8000A128A11FE30F6008730F7008230F800CB
:100AF8000A168A11B5240A128A112530F6008830A0
:100B0800F700C230F8000A168A11B5240A128A11B1
:100B1800333083120313D100BB30D000DF30CF0055
:100B2800CF0B942DD00B942DD10B942D831203133E
:100B3800B001B00A0C30CB2E5208CF00D0015008BB
:100B4800003A0319A82DB32D4F081F3A0319B82CE2
:100B5800303A0319A02C183A0319942CB32D0030FD
:100B68002102183003192002031CBB2DBC2DBE2DF9
:100B7800A001A101003023023C3003192202031C0A
:100B8800C62DC72DC92DA201A301003025023C3076
:100B980003192402031CD12DD22DD42DA401A501A3
:100BA8000130CF004F08B20765303206031DDD2D36
:100BB800DE2D922CB20131080319E32DE52D013009
:100BC800E62D0030B100C230CC000A30C50000303C
:100BD800C6002108C8002008C7000A168A11342652
:100BE8000A128A11831203134508303E0A168A1125
:100BF800D1220A128A11C33083120313CC000A309F
:100C0800F2000030F3002108F5002008F4000A166D
:100C18008A117F250A128A117208303E0A168A1133
:100C2800D1220A128A11C43083120313CC003A303D
:100C38000A168A11D1220A128A11C53083120313A7
:100C4800CC000A30C5000030C6002308C8002208BE
:100C5800C7000A168A1134260A128A11831203134E
:100C68004508303E0A168A11D1220A128A11C63066
:100C780083120313CC000A30F2000030F30023087B
:100C8800F5002208F4000A168A117F250A128A1133
:100C98007208303E0A168A11D1220A128A11C73008
:100CA80083120313CC003A300A168A11D1220A1291
:100CB8008A11C83083120313CC000A30C5000030F3
:100CC800C6002508C8002408C7000A168A11342659
:100CD8000A128A11831203134508303E0A168A1134
:100CE800D1220A128A11C93083120313CC000A30A8
:100CF800F2000030F3002508F5002408F4000A1675
:100D08008A117F250A128A117208303E0A168A1142
:100D1800D1220A128A118312031331080319952E5E
:100D2800962E922CBB2E2430F6008730F700C23066
:100D3800F8000A168A11B5240A128A11922C243056
:100D4800F6008730F700C530F8000A168A11B52476
:100D58000A128A11922C2430F6008730F700C83026
:100D6800F8000A168A11B5240A128A11922C2B0847
:100D7800003A0319C02E922C2A08003A0319972E1C
:100D8800013A0319A32E033A0319AF2E922C080037
:100D98008312031394154D08D1004E08D2004F0852
:100DA800D3005008D40002300310D10DD20DD30D5A
:100DB800D40DFF3E031DD82E5408C8005308C700A1
:100DC8005208C6005108C5000130CC003130CB00B4
:100DD8002D30CA000030C9000A128A15AE210A1245
:100DE8008A11831203134508FF3E831603139300E9
:100DF8008312031394160800523465342034653482
:100E08006E3474346534723420346E346534773417
:100E1800203470347734643420342034203420343F
:100E2800003445346E3474346534723420346E348E
:100E38006534773420347034773464342034203483
:100E480020342034003423342034203454344934BA
:100E58004D34453420342034203420344534203473
:100E6800203420345334503400344E346F3420341A
:100E78004C346F34673473342034413476346134FD
:100E880069346C34613462346C3465340034203431
:100E98002034543449344D344534203420342034FB
:100EA8002034203445342034203453345034003432
:100EB800503461347334733477346F347234643437
:100EC80020346334683461346E3467346534643490
:100ED8000034203459346F3475342034613472341A
:100EE8006534203462346C346F3463346B34653465
:100EF80064340034503461347334733477346F3469
:100F080072346434203420346334683461346E3489
:100F18006734653400344E346F3420346C346F34A5
:100F2800673473342034613476346134693461341D
:100F380062346C3465340034573461346934743441
:100F4800203466346F3472342E342E342E342034E8
:100F580020346D3469346E34003443346834613479
:100F68006E346734653420347034613473347334C8
:100F780077346F3472346434003420344134743438
:100F8800743465346D347034743420347234653498
:100F98006D34613469346E340034203445346E3431
:100FA8007434653472342034503461347334733497
:100FB80077346F34723464340034573472346F3495
:100FC8006E34673420345034613473347334773476
:100FD8006F34723464340034733475346334633476
:100FE800653473347334663475346C346C347934E2
:100FF80020340034543469346D3465342034633417
:10100800683461346E3467346534643400344C3485
:101018006F3467347334203463346C34653461342A
:10102800723465346434003444346F3477346E3445
:101038006C346F346134643420346C346F34673406
:10104800003453347534633463346534733473341F
:10105800663475346C346C347934003473347534D4
:1010680063346334653473347334663475346C3480
:101078006C347934003420342034483448343A34D9
:101088004D344D343A3453345334003443346C348F
:1010980065346134723420346C346F34673400340E
:1010A8005334653474342034743469346D3465349D
:1010B8000034563469346534773420346C346F34F2
:1010C800673400344C346F346734733420343A3422
:1010D80000346634613469346C3465346434003403
:1010E800313430343134303400344C346F34673474
:1010F80073340034433420340034473431340034FA
:1011080047343234003447343334003447343434C9
:10111800003447344E3400344334503400344734B8
:1011280052340034433454340034831203131214F9
:101138009214FA308316031392008C14831203134B
:1011480012150800C330F700CD30F600F60BAA28B8
:10115800F70BAA28F20133300A168A1132230A1231
:101168008A151B30F7009E30F600F60BB928F70BEE
:10117800B9280000F20133300A168A1132230A1204
:101188008A15A630F600F60BC7280000F2013330A6
:101198000A168A1132230A128A15D228D328000087
:1011A800F20138300A168A1132230A128A15A6303B
:1011B800F600F60BDD280000F20101300A168A114C
:1011C80032230A128A150430F7003D30F600F60B78
:1011D800EB28F70BEB28F028F2010C300A168A11DD
:1011E80032230A128A15A630F600F60BF9280000F9
:1011F80008000A168A110A270A128A153A30F200DC
:101208000030F3000630F4000030F500B9300A165B
:101218008A11C2260A128A15831203134908F2009A
:101228004A08F3000230F4000030F500BF300A1617
:101238008A11C2260A128A150A30F2000030F30019
:10124800831203134B08CC00CD014C08F4004D0861
:10125800F5000A128A1516220A128A157208303EFB
:1012680083160313C1000A30F2000030F300831222
:1012780003134B08CC00CD014C08F4004D08F500D1
:101288000A128A1555210A128A157208303E8316E9
:101298000313C100C3010A168A11B9250A128A1557
:1012A8000800F801F51F59295A296129F409F50997
:1012B800F40A0319F50AF801F80AF31F64296529E5
:1012C8006A29F209F309F20A0319F30A7208730486
:1012D80003196F2970299F29F701F70A7E29013020
:1012E8000310F20DF30DFF3E031D74290130F600C3
:1012F8007608F707F31F8129822973297308750275
:10130800031D882972087402031C8B298C299229D1
:101318007208F4027308031CF503F5020130031088
:10132800F30CF20CFF3E031D93290130F702031D55
:101338009E299F29822978080319A329A429A92964
:10134800F409F509F40A0319F50A7508F300740895
:10135800F20008000030F6000030F5000030F4001C
:101368000030F30083120313480847044604450479
:101378000319BF29C0290D2AF701F70AD02901301E
:10138800F2000310C50DC60DC70DC80DF20BC52917
:101398000130F2007208F707C81FD329D429C329DE
:1013A8000130F2000310F30DF40DF50DF60DF20BFC
:1013B800D62948084C02031DEB2947084B02031D98
:1013C800EB2946084A02031DEB2945084902031C7C
:1013D800EE29EF29FE294508C9024608031C460FD5
:1013E800CA024708031C470FCB024808031C480FD2
:1013F800CC02731401300310C80CC70CC60CC50C02
:10140800FF3E031DFF290130F702031D0C2A0D2A98
:10141800D4297608C8007508C7007408C600730880
:10142800C500080083120313C601F31F1C2A1D2AD6
:10143800242AF209F309F20A0319F30AC601C60AB3
:10144800F51F272A282A312AF409F509F40A03196D
:10145800F50A0130F6007608C606C701C801720809
:1014680073040319382A392A702AC501C50A472A7C
:1014780001300310F20DF30DFF3E031D3D2A01302C
:10148800F6007608C507F31F4A2A4B2A3C2A013082
:101498000310C70DC80DFF3E031D4C2A73087502C3
:1014A800031D582A72087402031C5B2A5C2A632AEB
:1014B8007208F4027308031CF503F502471401309F
:1014C8000310F30CF20CFF3E031D642A0130C50221
:1014D800031D6F2A702A4B2A46080319742A752A95
:1014E8007A2AC709C809C70A0319C80A4808F300AD
:1014F8004708F200080083120313D10030304E066B
:10150800031D872A882A8E2AB5010A168A1188227D
:101518000A128A153730831203135106031D952AC0
:10152800962AA62A0430350203189B2A9C2AA62A42
:101538000130CF004F08B5070A168A1188220A120F
:101548008A15B42A2F305106031DAB2AAC2AB42AB7
:1015580035080319B02AB12AB42A0130B502A02AE5
:1015680004308312031335020318BB2ABC2AEF2A5E
:101578008030CC002A300A168A11D1220A128A1524
:10158800831203133508CF004F07AC3E8400831342
:101598000008F600840A00088403F7008230F80087
:1015A8000A168A11B5240A128A15831203133508FC
:1015B800CF004F07AE3E840083130008F600840A6C
:1015C80000088403F700C230F8000A168A11B5240F
:1015D8000A128A15272B04303506031DF42AF52A2A
:1015E800272B3508CF004F07AA3E84008313000835
:1015F800F600840A00088403F7008230F8000A160F
:101608008A11B5240A128A15831203133508CF00EC
:101618004F07AC3E840083130008F600840A0008D4
:101628008403F700C230F8000A168A11B5240A129A
:101638008A15C03083120313CC002A300A168A1187
:10164800D1220A128A15831203133508080083125F
:101658000313DC002E0A031D352B2F0A031D352B1F
:10166800362B4D2B2730F6008730F7008030F800F6
:101678000A168A11B5240A128A153930F6008730FD
:10168800F700C030F8000A168A11B5240A128A1524
:10169800442C2730F6008730F7008030F8000A160F
:1016A8008A11B5240A128A153730831203135C068F
:1016B800031D5F2B602B772B2F08803A803C031D7E
:1016C800672B2E08340203186A2B6B2B772B0130FB
:1016D80083120313CF004F08B4070A168A11882211
:1016E8000A128A15872B2F30831203135C06031DF9
:1016F8007E2B7F2B872B34080319832B842B872B76
:101708000130B402712B0A30F2008312031334083B
:101718000A168A11E6220A128A15053E8312031355
:10172800DB00DD01DE01831203135D08503E8400F7
:101738005D085B070A168A118A240A128A15831320
:101748008000013083120313DD070318DE0A00301E
:10175800DE075E08803AFF0080307F02031DB62B4B
:101768000A305D02031CB92BBA2B972BF2010C30FF
:101778000A168A1132230A128A15C03083120313FB
:10178800CC003408303E0A168A11D1220A128A1572
:10179800C23083120313CC0050080A168A11D122D2
:1017A8000A128A15C33083120313CC0051080A1693
:1017B8008A11D1220A128A15C43083120313CC006D
:1017C8003A300A168A11D1220A128A15C5308312B4
:1017D8000313CC0052080A168A11D1220A128A155C
:1017E800C63083120313CC0053080A168A11D1227B
:1017F8000A128A15C73083120313CC003A300A162E
:101808008A11D1220A128A15C83083120313CC0018
:1018180054080A168A11D1220A128A15C93083126D
:101828000313CC0055080A168A11D1220A128A1508
:10183800CB3083120313CC0056080A168A11D12222
:101848000A128A15CC3083120313CC0057080A16E3
:101858008A11D1220A128A15CE3083120313CC00C2
:1018680058080A168A11D1220A128A15CF30831213
:101878000313CC0059080A168A11D1220A128A15B4
:10188800080083120313D10010304E06031D4D2C9F
:101898004E2C622C2230F2008730F3000430F40022
:1018A8000030F500C4300A168A11C2260A128A15B9
:1018B80083120313AC01AD010530E5006508031D73
:1018C800662C672C692C0A30682D2D08803AFF0099
:1018D80080307F02031D722C04302C020318752CF3
:1018E800762C822C1530F6008730F7008030F8000F
:1018F8000A168A11B5240A128A15FC2C83120313BE
:101908002D08803AFF0080307F02031D8D2C0430A3
:101918002C02031C902C912CFC2C831203132D08F1
:10192800803AFF0080307F02031D9C2C08302C0277
:1019380003189F2CA02CFC2C0030F6008730F700F1
:101948008030F8000A168A11B5240A128A15FC2C70
:101958002C08C43E84003130831380003308C63E0F
:10196800CC002A300A168A11D1220A128A150130AF
:1019780083120313AC070318AD0A0030AD0701301A
:10198800CF004F08B3070530E50004302C062D04BE
:10199800031DCF2CD02C0E2DB3010A168A118822D4
:1019A8000A128A150E2D2C08C43E84003030831389
:1019B80080003308C63ECC002A300A168A11D1228C
:1019C8000A128A15013083120313AC070318AD0AF3
:1019D8000030AD070130CF004F08B3070530E500F0
:1019E80004302C062D04031DFA2CFB2C0E2DD02CB4
:1019F800831203135108CF00D0015008003A03198D
:101A0800062D0E2D4F082F3A0319D72C183A031913
:101A1800AC2C0E2D0830831203132C062D04031D45
:101A2800162D172D672DC830F2000430F300003052
:101A3800F400C4300A168A11F6250A128A157208AB
:101A48007304031D282D292D502DC830F7000030B0
:101A5800F80000300A168A11E4240A128A155C304C
:101A6800F6008730F7008030F8000A168A11B5248E
:101A78000A128A15F030F6008730F700C230F800F5
:101A88000A168A11B5240A128A150A168A1188229A
:101A98000A128A150C30682D7E30F6008730F70060
:101AA8008030F8000A168A11B5240A128A156D309A
:101AB800F6008830F700C530F8000A168A11B524F8
:101AC8000A128A15492D0D300800FF3083120313BE
:101AD800D200FF30D3002E0A031D762D2F0A031DD6
:101AE800762D772D812D8F30F3008730F4000A167C
:101AF8008A11BD230A128A15922E6630F3008830A7
:101B0800F4000A168A11BD230A128A150A300A1629
:101B18008A1165220A128A15822E01308312031354
:101B2800D2070318D30A0030D3073708031D9D2DA9
:101B38009E2DA12DD001D101B72D0A30F200003021
:101B4800F3006608013EF400003003180130F50088
:101B58000A128A1555210A128A157308831203136B
:101B6800D1007208D0000A30F2000030F3005208A9
:101B78005007F40053080318530A5107F5000A12D6
:101B88008A1555210A128A15730883120313D10086
:101B98007208D000D401D5010A30F2008312031371
:101BA80050080A168A11E6220A128A1583120313AC
:101BB8005407053ECF005408463E84004F080A16D5
:101BC8008A118A240A128A1583138000013083122D
:101BD8000313D4070318D50A0030D5075508803AEF
:101BE800FF0080307F02031DFB2D0A305402031CC6
:101BF800FE2DFF2DD02D831203135208303E0A16F6
:101C08008A1165220A128A1520300A168A1165225D
:101C18000A128A158312031346080A168A116522C6
:101C28000A128A158312031347080A168A116522B5
:101C38000A128A153A300A168A1165220A128A157A
:101C48008312031348080A168A1165220A128A1594
:101C58008312031349080A168A1165220A128A1583
:101C68003A300A168A1165220A128A15831203135A
:101C78004A080A168A1165220A128A158312031362
:101C88004B080A168A1165220A128A1520300A168C
:101C98008A1165220A128A15831203134C080A1640
:101CA8008A1165220A128A15831203134D080A162F
:101CB8008A1165220A128A1520300A168A116522AD
:101CC8000A128A15831203134E080A168A1165220E
:101CD8000A128A15831203134F080A168A116522FD
:101CE8000A128A150A300A168A1165220A128A15FA
:101CF8000D300A168A1165220A128A1583120313F7
:101D08005308803AC5002F08803A4502031D8E2EDD
:101D18002E085202031C912E922E912D0800831238
:101D28000313D60010304E06031D9B2E9C2EA72EA3
:101D38000330E400C101C201C301C401B601FF3090
:101D4800D6000530E5006508031DAB2EAC2EAE2E7F
:101D58000A30FF2F37305606031DB32EB42ED22E6D
:101D6800043036020318B92EBA2ED22E3608413E58
:101D780084003130831380003608C63ECC002A30F8
:101D88000A168A11D1220A128A1501308312031306
:101D9800CF004F08B6070530E500EE2E2F30560667
:101DA800031DD72ED82EEE2E043036020318DD2E52
:101DB800DE2EEE2E3608413E84003030831380003C
:101DC8003608C63ECC002A300A168A11D1220A12D9
:101DD8008A15C92E04303606031DF32EF42EFE2F65
:101DE800D701D801831203135708523E84005708BD
:101DF8000A168A118A240A128A1583138000013070
:101E080083120313D7070318D80A0030D8075808D5
:101E1800803AFF0080307F02031D142F04305702E0
:101E2800031C172F182FF62E4130F2000430F30050
:101E38000030F40052300A168A11F6250A128A1563
:101E480072087304031D292F2A2F2C2F0B30FF2F04
:101E5800013083120313E4026408031D342F352F65
:101E68009F2F0F30B8000A168A1188220A128A1585
:101E7800F2010C300A168A1132230A128A15A5308B
:101E880083120313CF00CF0B472F4A2F6D30F60074
:101E98008730F7008030F8000A168A11B5240A1234
:101EA8008A15A030F6008730F700C030F8000A160F
:101EB8008A11B5240A128A15952FCB30CC000A3026
:101EC800F2000030F3003808CF00D0014F08F400CA
:101ED8005008F5000A128A1516220A128A15720885
:101EE800303E0A168A11D1220A128A15CC30831282
:101EF8000313CC000A30F2000030F3003808CF009A
:101F0800D0014F08F4005008F5000A128A1555212F
:101F18000A128A157208303E0A168A11D1220A124C
:101F28008A15831203133808031D9B2F9C2F612FDA
:101F38000330E400D42F0A168A1188220A128A155F
:101F4800E130F6008730F7008030F8000A168A1171
:101F5800B5240A128A15C03083120313CC00640812
:101F6800303E0A168A11D1220A128A15C130F600AB
:101F78008730F700C130F8000A168A11B5240A1212
:101F88008A15663083120313D1007630D000C03032
:101F9800CF00CF0BCD2FD00BCD2FD10BCD2F0000E5
:101FA8000A168A1188220A128A15D130F60087305B
:101FB800F7008030F8000A168A11B5240A128A152B
:101FC80083120313B6010530E500F201C6300A1684
:101FD8008A1132230A128A15F2010F300A168A1161
:101FE80032230A128A15A53083120313CF00CF0BB0
:101FF800FB2FFE2FFF300800FF1B0A2883137F18D2
:1020080083170008840A0319FF0A08007F087F392C
:0C2018008A000408840A0319FF0A8200F1
:10244800013403340534FF348316031306083F3878
:1024580086000800831603139F17831203131F14A3
:10246800080064008001840A040603190034040685
:10247800362A0A168A117B220A168A118316031332
:10248800111408000A168A117B220A168A1183166B
:10249800031311150800F2000A168A117B220A1686
:1024A8008A11720883120313930008000A168A110E
:1024B80046220A168A110A168A113D220A168A111C
:1024C8000800F20072088312031399000C1E6D2A8B
:1024D8006E2A6A2A0C120800831603138801091150
:1024E80089100A128A15A6200A168A11080083166E
:1024F80003131419802A812A7B2A11081F39031D06
:10250800862A872A7B2A0800F20101300A168A11D6
:1025180032230A168A110430F7003D30F600F60B14
:10252800932AF70B932A982A0800831203131F157E
:102538001F199F2AA02A9C2A1E08F5008316031338
:102548001E08F4007508F3007408F2000800003053
:102558000A168A115F240A168A11F60076087F394E
:10256800F6007608F30000300A168A1114230A16BA
:102578008A1108007E088A007F0882000A168A11DC
:10258800BE220A168A118000840A04087D060319EF
:102598000034FF0A0319FE0AC22A83120313CD006E
:1025A800F2014C080A168A1132230A168A11F2011E
:1025B800F20A831203134D080A168A1132230A16E7
:1025C8008A110800F500F401751CEB2AEC2AF02AA0
:1025D8007208F3007308F4070310F20D0310F50CEA
:1025E8007508031DF82AF92AE82A740808008D34AA
:1025F80088349334883481348834843488348734F4
:1026080088348A3488345D3488344A3488341834B9
:102618008834B1348734543488344F344E340034D9
:10262800F4000A168A113D220A168A11D0300A16B9
:102638008A114F220A168A1174080A168A114F2223
:102648000A168A1173080A168A114F220A168A1165
:102658000A168A1146220A168A110800F50072180D
:10266800362B3A2B8312031309153D2B83120313C0
:102678000911750888008914A630F300F30B422B62
:1026880000008312031389101B30F4009E30F300FE
:10269800F30B4C2BF40B4C2B00000800F2000A162D
:1026A8008A117B220A168A118316031391150A16BA
:1026B8008A117B220A168A11831203131308F30066
:1026C8007203031D682B692B6D2B83160313911658
:1026D800702B831603139112111673080800F60164
:1026E800F701721C782B792B7F2B7408F6070318D7
:1026F800F70A7508F70701300310F40DF50DFF3ED2
:10270800031D802B01300310F30CF20CFF3E031D58
:10271800872B72087304031D922B932B752B770854
:10272800F3007608F2000800F6007608F500A62BFC
:102738000130F4007408F5070130F2070318F30AB2
:102748000030F307730883120313FF007208840034
:102758000A168A1100200A168A11F40075088400E6
:102768007408831380000008031DBB2BBC2B9C2B13
:102778000800D22B7408FF00730884000A168A1117
:1027880000200A168A110A168A1165220A168A1169
:102798000130F3070318F40A0030F40774088312B1
:1027A8000313FF00730884000A168A1100200A1612
:1027B8008A11003A031DE12BE22BBE2B0800F6001C
:1027C8000A168A113D220A168A11A0300A168A11A1
:1027D8004F220A168A1176080A168A114F220A16FB
:1027E8008A1173080A168A114F220A168A110A16C4
:1027F8008A1146220A168A111430F5007930F4003D
:10280800F40B042CF50B042C092C0800F3007308B6
:10281800031D0F2C102C152C8312031306083F39A7
:10282800332C3F30831203130605F2003F30720643
:1028380003191F2C202C272C63080319242C252C62
:10284800272CE301102C3F300605F2003F307206BA
:10285800031D2F2C302C322CE301E30A3F300800F3
:1028680083120313C5000B30F6008830F70082305E
:10287800F8000A168A11B5240A168A113230F600B1
:102888008830F700C230F8000A168A11B5240A16F3
:102898008A115030831203134506031D542C552CFE
:1028A8005D2CFF30E600FF30AE00FF30AF000C308B
:1028B8005E2C0D300800F4000A168A113D220A1613
:1028C8008A11D0300A168A114F220A168A11740802
:1028D8000A168A114F220A168A110A168A115A22D2
:1028E8000A168A11D1300A168A114F220A168A113D
:1028F80000300A168A1152230A168A11F5000A16A0
:102908008A1146220A168A1175080800F4000A1668
:102918008A113D220A168A11A0300A168A114F22FE
:102928000A168A1174080A168A114F220A168A1181
:102938000A168A115A220A168A11A1300A168A1111
:102948004F220A168A1100300A168A1152230A16D3
:102958008A11F5000A168A1146220A168A11750884
:102968000800F20178080A168A1132230A168A1119
:10297800D32CF201F20A7708FF00760884000A16C1
:102988008A1100200A168A110A168A1132230A1699
:102998008A110130F6070318F70A0030F70777089D
:1029A80083120313FF00760884000A168A11002098
:1029B8000A168A11003A031DE22CE32CBD2C0800EC
:1029C80083120313C600042D7808FF0077088400DB
:1029D8000A168A1100200A168A11F30046080A16F8
:1029E8008A11E3230A168A110130F7070318F80A37
:1029F8000030F807013083120313C5004508C607E5
:102A08007808FF00770884000A168A1100200A1641
:102A18008A11003A031D112D122DE82C080083128B
:102A28000313981718164D08D1004E08D2004F0806
:102A3800D3005008D40004300310D10DD20DD30DAB
:102A4800D40DFF3E031D202D5408C8005308C700AD
:102A58005208C6005108C5000130CC003130CB0007
:102A68002D30CA000030C9000A128A15AE210A1694
:102A78008A11831203134508FF3E83160313990036
:102A880008000A168A1170220A168A110A168A1173
:102A98002E220A168A11003083120313D000013047
:102AA800CF008630CE00A030CD000A128A11CC2685
:102AB8000A168A110A168A11AB220A168A110A16F0
:102AC8008A1128220A168A110A128A1599200A16CA
:102AD8008A11003083120313D0000030CF00253054
:102AE800CE008030CD000A168A1113250A168A11E5
:102AF8008B170B170800720873040319842D852D92
:102B0800B42DF701F70A932D01300310F20DF30DE0
:102B1800FF3E031D892D0130F6007608F707F31FE5
:102B2800962D972D882D73087502031D9D2D72080B
:102B38007402031CA02DA12DA72D7208F40273089E
:102B4800031CF503F50201300310F30CF20CFF3EF1
:102B5800031DA82D0130F702031DB32DB42D972DA9
:102B68007508F3007408F20008000130831203139B
:102B7800C7004708E6070A306606031DC42DC52DA1
:102B8800C82DE601B701B70A0A30F20066080A162E
:102B98008A11E6220A168A11053E83120313C80019
:102BA800B930F7000030F80048080A168A11E42402
:102BB8000A168A11831203132F08803AFF00803007
:102BC8007F02031DE92D09302E020318EC2DED2D8F
:102BD800F52D013083120313AE070318AF0A003036
:102BE800AF070800F700232E770884008313000836
:102BF8000319FF2D002E0C2E720884000008F50022
:102C0800770884000008750603190B2E0C2E1B2E5E
:102C1800720884000008F500770884000008F600B0
:102C280075087602F200F301031CF303332E01301A
:102C3800F5007508F7070130F5007508F20701304F
:102C4800F3020030031CF403F402730A031D302E50
:102C5800740A031D302E312EF82DF201F3010800FD
:102C680083120313CA01CB014508460403193D2EFC
:102C78003E2E752EC901C90A4C2E01300310C50D10
:102C8800C60DFF3E031D422E0130F6007608C90727
:102C9800C61F4F2E502E412E01300310CA0DCB0DEA
:102CA800FF3E031D512E46084802031D5D2E4508B0
:102CB8004702031C602E612E682E4508C70246088D
:102CC800031CC803C8024A1401300310C60CC50C03
:102CD800FF3E031D692E0130C902031D742E752E97
:102CE800502E4B08C6004A08C5000800831203137B
:102CF8008C1C7F2E802EBB2E0130A60700300318B7
:102D08000130A707003003180130A8070030031866
:102D18000130A907283026061D3003192706031D90
:102D28009A2E28032904031D9A2E9B2EB82E0030B4
:102D380083120313A9000030A8000030A700003058
:102D4800A60038080319A92EAA2EAC2E0130B80205
:102D58003808031DB02EB12EB82E65080319B52EFC
:102D6800B62EB82E0130E502831203138C107108B9
:102D78008A00700E8300FE0E7E0E09008312031374
:102D8800C5004508C600EC2E0130F4020030031CD3
:102D9800F503F5027308F7007208F600F20A031942
:102DA800F30A7708FF00760884000A168A110020C3
:102DB8000A168A11F800460884000130C607780808
:102DC800831380000008031DEA2EEB2EEC2EFB2E49
:102DD80074087504031DF12EF22EC82EFB2E46082A
:102DE8008400831380010130F6007608C60701309D
:102DF800F4020030031CF503F502740A031D082FC2
:102E0800750A031D082F092FF32E080002300A1631
:102E18008A115F240A168A11F90001300A168A11EC
:102E28005F240A168A11FA0000300A168A115F24F4
:102E38000A168A11FB007908F60004300310F60C14
:102E4800FF3E031D222F76080339303E83120313F9
:102E5800BA0079080F39303EBB007A08F600043012
:102E68000310F60CFF3E031D342F76080739303E59
:102E7800BC007A080F39303EBD007B08F6000430EC
:102E88000310F60CFF3E031D442F76080739303E29
:102E9800BE007B080F39303EBF00C00108000A168B
:102EA8008A110A270A168A11C23083120313CC002A
:102EB8003A080A168A11D1220A168A11C3308312D7
:102EC8000313CC003B080A168A11D1220A168A116C
:102ED800C43083120313CC003A300A168A11D12267
:102EE8000A168A11C53083120313CC003C080A164F
:102EF8008A11D1220A168A11C63083120313CC0014
:102F08003D080A168A11D1220A168A11C73083127F
:102F18000313CC003A300A168A11D1220A168A11F4
:102F2800C83083120313CC003E080A168A11D12236
:102F38000A168A11C93083120313CC003F080A16F7
:102F48008A11D1220A168A11080083120313D100AC
:102F58004B30F6008730F7008030F8000A168A11E7
:102F6800B5240A168A110A168A1153270A168A11D5
:102F7800831203135108F6000030F700CB30F80035
:102F88000A168A11B5240A168A11CE308312031341
:102F9800CC000A30F2000030F3004E08CF00D00118
:102FA8004F08F4005008F5000A128A1516220A166E
:102FB8008A117208303E0A168A11D1220A168A111D
:102FC800CF3083120313CC000A30F2000030F30034
:102FD8004E08CF00D0014F08F4005008F5000A123F
:102FE8008A1555210A168A117208303E0A168A1166
:082FF800D1220A168A1108001B
:02400E00FB3F76
:00000001FF
