:020000040000FA
:060000000A128A11EE2F26
:100B90008316031306083F38860008000A128A11DC
:100BA000C8250A128A110A128A11D9250A128A1135
:100BB0000800831603138801050803398500831292
:100BC000031305080339850008003F3406345B34FD
:100BD0004F3466346D347D3407347F346F340034E1
:100BE000003401347E088A007F0882000A128A11CC
:100BF000F2250A128A118000840A04087D0603196E
:100C00000034FF0A0319FE0AF62DF1007108031DD6
:100C10000A2E0B2E102E8312031306083F392E2E98
:100C20003F30831203130605F0003F3070060319AE
:100C30001A2E1B2E222E470803191F2E202E222E7D
:100C4000C7010B2E3F300605F0003F307006031D34
:100C50002A2E2B2E2D2EC701C70A3F300800700800
:100C600071040319342E352E642EF501F50A432E36
:100C700001300310F00DF10DFF3E031D392E013040
:100C8000F4007408F507F11F462E472E382E710820
:100C90007302031D4D2E70087202031C502E512E3C
:100CA000572E7008F2027108031CF303F30201309F
:100CB0000310F10CF00CFF3E031D582E0130F5021D
:100CC000031D632E642E472E7308F1007208F00096
:100CD0000800F800F90179087807F000700884002E
:100CE000831300088312031388000430F000790A8C
:100CF0007B2E0310F00DFF3E031D792E05080339EE
:100D0000700485000030F7000030F6000130F50077
:100D10009030F4000130F0000030F1000030F200BB
:100D20000030F3007008F4027108031C710F992E53
:100D30009A2EF5027208031C720F9F2EA02EF60247
:100D40007308031C730FA52EA62EF702740A031D49
:100D5000B32E750A031DB32E760A031DB32E770A30
:100D6000031DB32EB42E8A2E0130F0007008F9074F
:100D700004307902031CBD2EBE2E6B2E08002030DD
:100D800084003B30FA000408FB000C30FC007A08B9
:100D9000840083130008FD00FA0A7B0884007D08A4
:100DA0008000FB0AFC0BC72E323083120313B20003
:100DB0000030B300B901BA01B701B801B001B10107
:100DC000B401B5010A128A11CE250A128A11013026
:100DD0000A128A1105260A128A1183120313B60019
:100DE0003E303606031DF52EF62EFA2E0130B700E2
:100DF0000030B8003D303606031DFF2E002F042FB3
:100E00000230B7000030B8003B303606031D092F12
:100E10000A2F252F3008310403190F2F112F01300D
:100E2000122F0030FA00FB017A08B0007B08B100F5
:100E300030033104031D1D2F1E2F232F0130B4005A
:100E40000030B500252FB401B50134083504031D69
:100E50002A2F2B2F842F370838040319302F312FD6
:100E6000372F37033804031D362F372F582F013003
:100E7000B2020030031CB303B302320A031D442F35
:100E8000330A031D442F452F582F3230B200003053
:100E9000B3000130B9070318BA0A0030BA070D30A1
:100EA00039063A04031D552F562F582FB901BA01A0
:100EB000023037063804031D5E2F5F2F842F013068
:100EC000B2020030031CB303B302320A031D6C2FBD
:100ED000330A031D6C2F6D2F842F3230B200003087
:100EE000B3000130B9020030031CBA03BA02390A58
:100EF000031D7E2F3A0A031D7E2F7F2F842F0C3077
:100F0000B9000030BA00842F0C30F0000030F1003E
:100F10003A08F3003908F2000A128A112F260A1241
:100F20008A117008203E8400831300088312031383
:100F3000AC000C30F0000030F1003908013EF20046
:100F40003A080318013E003EF3000A128A112F26C8
:100F50000A128A117008203E84008313000883124D
:100F60000313AD000C30F0000030F1003908023EF0
:100F7000F2003A080318013E003EF3000A128A11FB
:100F80002F260A128A117008203E8400831300085D
:100F900083120313AE000C30F0000030F10039086A
:100FA000033EF2003A080318013E003EF3000A1225
:100FB0008A112F260A128A117008203E840083139A
:100FC000000883120313AF002C300A128A1169261D
:100FD0000A128A11E72E0A128A1100288313483058
:100FE000FD000530FE00E530FF003B3084000A12B2
:100FF0008A11F6250A128A1183010A128A11BF2E5C
:02400E00FB3F76
:00000001FF
