:020000040000FA
:060000000A128A110C280F
:10000800FE00030EF0000A08F1000A128A119D286A
:100018000A128A110F280A128A112C210A128A112F
:10002800A5000A128A112D210A128A11A6000A12A5
:100038008A112E210A128A11FA00F801F9018301A6
:100048000A128A112728003083120313A3000030F4
:10005800A2000130A100F430A0000A128A110A217E
:100068000A128A1100300A128A11E0200A128A1133
:1000780083120313A4000130F4000030F5000030AF
:10008800F6000030F7007408A0027508031C750F0D
:100098004E284F28A1027608031C760F54285528AD
:1000A800A2027708031C770F5A285B28A302200AAC
:1000B800031D6828210A031D6828220A031D6828D1
:1000C800230A031D68286928362800308312031381
:1000D800A3000030A2000130A100F430A0003E309F
:1000E8002406031D782879288628643025062604E6
:1000F80003197F28802886280130A5070318A60A37
:100108000030A6073D302406031D8B288C2836288E
:10011800250826040319912892289928FF30A50755
:100128000318A60AFF30A607362836280A128A11AD
:100138000C280B1DA028A128D92883120313010815
:10014800083E81000313831226087902031DB02894
:1001580003138312250878020318B328B428B82893
:10016800831203130814C92879080313831226027B
:10017800031DC22878080313831225020318C52813
:10018800C628C9288312031308100130F80703187A
:10019800F90A0030F907653078067904031DD52877
:1001A800D628D828F801F9010B1171088A00700EB9
:1001B8008300FE0E7E0E0900F3007308031DE52878
:1001C800E628EB288312031306083F3909293F3034
:1001D800831203130605F2003F3072060319F5284F
:1001E800F628FD287A080319FA28FB28FD28FA01C1
:1001F800E6283F300605F2003F307206031D052948
:1002080006290829FA01FA0A3F3008008312031365
:1002180088018316031388010A128A111C210A1205
:100228008A110A128A1126210A128A118B170800CC
:10023800831603138112811506308312031381007C
:100248008B1608008316031306083F38860008003B
:06025800323400340134D1
:02400E00FB3F76
:00000001FF
