:020000040000FA
:060000000A128A110C280F
:10000800FE00030EF6000A08F7000A128A111928E2
:100018000A128A110F28F001F101F201F301F4012B
:10002800F50183010A128A11AD280B1D1C281D2811
:100038003628831203130108083E81000130F407B3
:100048000318F50A0030F507103074062730031935
:100058007506031D302831283528F401F5010130D3
:1000680088060B11831203130C1C3B283C285228CA
:100078000B308F00DC308E000130F2070318F30AD2
:100088000030F307283072067304031D4C284D28EE
:100098005128F201F301023088060C108C1C5528F7
:1000A80056286A280130F0070318F10A0030F107D2
:1000B80071307006023003197106031D6428652823
:1000C8006928F001F101043088068C1077088A004D
:1000D800760E8300FE0E7E0E09008312031388013C
:1000E8008316031388010A128A11A3200A128A119F
:1000F8000A128A1196200A128A110A128A11892074
:100108000A128A110B178B17080083120313121493
:100118009214FA308316031392008C14831203137B
:1001280012150800831203139010101490150B3049
:100138008F00DC308E00831603130C14080083161E
:1001480003138112811506308312031381008B1665
:1001580008000A128A1171200A128A11B2280A129A
:040168008A110C28C4
:02400E00FB3F76
:00000001FF
