:020000040000FA
:060000000A128A110C280F
:10000800FE00030EF2000A08F3000A128A11DC2827
:100018000A128A110F2883134430FD000230FE00B3
:100028003330FF00383084000A128A1117220A126E
:100038008A11C401C501C601C701C801C901CA01A5
:10004800CB01F801F90183010A128A112B282A3001
:100058008400383083120313A6000408A7000A306E
:10006800A8002608840083130008A900A60A270808
:10007800840029088000A70AA80B35280A128A11CB
:1000880026220A128A113C30831203134A064B04B3
:10009800031D4F28502858280130C2070318C30AE7
:1000A8000030C307CA01CB01183042064304031DC0
:1000B8005E285F286128C201C3010A30F4000030BD
:1000C800F5004308F7004208F6000A128A11912148
:1000D8000A128A1174082A3E8400831300088312C6
:1000E8000313B40048034904031D7B287C28932884
:1000F8000A30F4000030F5004308F7004208F60023
:100108000A128A11D7210A128A1174082A3E840019
:1001180083130008803883120313B500A8280A3017
:10012800F4000030F5004308F7004208F6000A1210
:100138008A11D7210A128A1174082A3E840083136F
:10014800000883120313B5000A30F4000030F500EC
:100158004B08F7004A08F6000A128A1191210A1280
:100168008A1174082A3E840083130008831203133B
:10017800B6000A30F4000030F5004B08F7004A08D2
:10018800F6000A128A11D7210A128A1174082A3E27
:1001980084008313000883120313B70034300A1253
:1001A8008A1137210A128A1147280A128A110C2843
:1001B8000B1DDF28E0283029831203130108083EAD
:1001C80081000130F8070318F90A0030F9071030E8
:1001D8007806273003197906031DF328F428042923
:1001E800F801F901480849040319FB28FD280130E2
:1001F800FE280030F000F1017008C8007108C9003D
:100208000130C407003003180130C5070030031857
:100218000130C607003003180130C70720304406F4
:10022800F430031945060E30031946064704031D2A
:100238001E291F292F29003083120313C7000030FD
:10024800C6000030C5000030C4000130CA070318DA
:10025800CB0A0030CB070B1173088A00720E83009B
:10026800FE0E7E0E090083120313A400A5012508C3
:100278002407F400740884008313000888000430FD
:10028800F400250A49290310F40DFF3E031D4729F0
:1002980005080339740485000030A3000030A2006B
:1002A8000130A1009030A0000130F4000030F500CA
:1002B8000030F6000030F700740883120313A00220
:1002C8007508031C750F69296A29A1027608031CA1
:1002D800760F6F297029A2027708031C770F7529FA
:1002E8007629A302200A031D8329210A031D8329D5
:1002F800220A031D8329230A031D832984295829D7
:100308000130F400740883120313A5070430250292
:10031800031C8F2990293B29080083120313A2018B
:10032800A3017408750403199A299B29D229A101EC
:10033800A10AA92901300310F40DF50DFF3E031D94
:100348009F290130A0002008A107F51FAC29AD297D
:100358009E2901300310A20DA30DFF3E031DAE29F7
:1003680075087702031DBA2974087602031CBD2993
:10037800BE29C5297408F6027508031CF703F7029D
:10038800221401300310F50CF40CFF3E031DC6299E
:100398000130A102031DD129D229AD292308F50076
:1003A8002208F4000800740875040319DC29DD2903
:1003B8000E2A83120313A101A10AED2901300310AB
:1003C800F40DF50DFF3E031DE3290130A0002008C0
:1003D800A107F51FF029F129E22975087702031D05
:1003E800F72974087602031CFA29FB29012A7408E4
:1003F800F6027508031CF703F70201300310F50C29
:10040800F40CFF3E031D022A0130A102031D0D2A30
:100418000E2AF1297708F5007608F40008007E080E
:100428008A007F0882000A128A1113220A128A118E
:100438008000840A04087D0603190034FF0A0319A2
:10044800FE0A172A0A128A114B220A128A110A1264
:100458008A113F220A128A110B178B1708003F34A2
:1004680006345B344F3466346D347D3407347F345E
:100478006F340C34003483160313880105080339DC
:1004880085008312031305080339850008008316C5
:1004980003138112811506308312031381008B1612
:0204A80008004A
:02400E00FB3F76
:00000001FF
