:020000040000FA
:100000000A128A11EE2F00308A000408840A82073F
:100010000034203420342034203420342034203460
:100020002034203420342034203420342034203430
:100030002034003445345834433445344C344C3443
:1000400045344E3454342C34203459344F345534E0
:10005000203420340034203445344E345434453474
:1000600052342034503441345334533457344F34A1
:1000700052344434203400344134543454344534FC
:100080004D34503454345334203452344534413494
:1000900043344834453444340034433452344134D6
:1000A00043344B3445344434203454344834453498
:1000B000203443344F3444344534003457345234BC
:1000C0004F344E3447342034503441345334533455
:1000D00057344F34523444342034003420344134C3
:1000E0005434543445344D3450345434533420341F
:1000F0004C3445344634543420340034523445347E
:100100005334453454342034543448344534203442
:1001100042344F3441345234443400342A340034AD
:040120005F34003414
:10095A003134303431343034313430343134303469
:10096A0000340134831603138801091189100A120D
:10097A008A11CC250A128A1108000A128A11B72490
:10098A000A128A110A128A11CD240A128A1108003F
:10099A00831603130608073886000808F03988000A
:1009AA008113831203138815081588140814080084
:1009BA00F500F00174080A128A1150250A128A11E8
:1009CA00F001F00A75080A128A1150250A128A11D2
:1009DA0008007E088A007F0882000A128A11EE2423
:1009EA000A128A118000840A04087D060319003459
:1009FA00FF0A0319FE0AF22CF2000A128A112F26A4
:100A0A000A128A11F3007208031D0C2D0D2D0F2DE9
:100A1A007308272D730A0319132D142D1D2D831204
:100A2A000313400803191A2D1B2D1D2DC0010D2D6E
:100A3A00730A031D212D222D262D83120313C001B3
:100A4A00C00AFF300800F600F00174080A128A1181
:100A5A0050250A128A11432DF001F00A7608840003
:100A6A000A128A1103200A128A110A128A115025BF
:100A7A000A128A110130F5007508F6077608840013
:100A8A000A128A1103200A128A11003A031D4E2DF6
:100A9A004F2D312D0800F3007018542D582D831254
:100AAA00031309155B2D8312031309117308F03917
:100ABA0088008914A630F100F10B612D0000831221
:100ACA000313891073080F39F10003300310F10D75
:100ADA00FF3E031D6B2D0310710D88008914A6308B
:100AEA00F100F10B762D00008312031389101B30DD
:100AFA00F2009E30F100F10B802DF20B802D0000E8
:100B0A000800F700F501F601F801F901A92D7808A6
:100B1A007007F200720884000008F300780877076B
:100B2A00F400740884000008730603199D2D9E2D95
:100B3A00A32D0130F5000030F600BE2D0130F80774
:100B4A000318F90A0030F90778087707F2007208E3
:100B5A008400831300080319B32DB42DBE2D780821
:100B6A007007F200720884000008031DBD2DBE2D17
:100B7A008C2D75087604031DC32DC42DC72DF001D5
:100B8A00F101CB2D0130F0000030F1000800C33034
:100B9A00F500CD30F400F40BD02DF50BD02DF0017B
:100BAA0033300A128A1150250A128A111B30F500B5
:100BBA009E30F400F40BDF2DF50BDF2D0000F00161
:100BCA0033300A128A1150250A128A11A630F4000B
:100BDA00F40BED2D0000F00133300A128A11502572
:100BEA000A128A11F82DF92D0000F00102300A12BA
:100BFA008A1150250A128A11A630F400F40B032E2A
:100C0A000000F00128300A128A1150250A128A11AE
:100C1A00A630F400F40B0F2E0000F00101300A1286
:100C2A008A1150250A128A110430F5003D30F40069
:100C3A00F40B1D2EF50B1D2E222EF0010C300A127C
:100C4A008A1150250A128A11A630F400F40B2B2EB1
:100C5A000000080083120313881108158814081469
:100C6A006430F0000030F100FF30F0070318F10A99
:100C7A00FF30F107700A031D462E710A031D462E26
:100C8A00472E392E8312031306184C2E4D2E4F2E43
:100C9A000130DA2E8618522E532E552E0230DA2EB5
:100CAA000619582E592E5B2E0330DA2E8815081194
:100CBA00881408146430F0000030F100FF30F007A7
:100CCA000318F10AFF30F107700A031D702E710A2A
:100CDA00031D702E712E632E831203130618762EAF
:100CEA00772E792E0430DA2E86187C2E7D2E7F2ED2
:100CFA000530DA2E0619822E832E852E0630DA2E3C
:100D0A0088150815881008146430F0000030F100C6
:100D1A00FF30F0070318F10AFF30F107700A031DCC
:100D2A009A2E710A031D9A2E9B2E8D2E831203135F
:100D3A000618A02EA12EA32E0730DA2E8618A62E6C
:100D4A00A72EA92E0830DA2E0619AC2EAD2EAF2EFC
:100D5A000930DA2E88150815881408106430F00056
:100D6A000030F100FF30F0070318F10AFF30F107F5
:100D7A00700A031DC42E710A031DC42EC52EB72E78
:100D8A00831203130618CA2ECB2ECD2E2A30DA2E42
:100D9A008618D02ED12ED32E0030DA2E0619D62E52
:100DAA00D72ED92E2330DA2EFF30080083120313F0
:100DBA00B6010530B500203084003730FA00040847
:100DCA00FB000930FC007A08840083130008FD0048
:100DDA00FA0A7B0884007D088000FB0AFC0BE82ED7
:100DEA000A128A11C2240A128A11831203133508BD
:100DFA000319002F012FD92F01300A128A11012558
:100E0A000A128A1183120313B40008303602031837
:100E1A000F2F102F762F340A031D142F152F362F5C
:100E2A003608C03EF40088300A128A1128250A12B0
:100E3A008A110230FC004530FB00A930FA00FA0B97
:100E4A00242FFB0B242FFC0B242F2B2F831203138D
:100E5A003608C03EF40010300A128A1128250A12F8
:100E6A008A118030F40023300A128A1128250A12C6
:100E7A008A11831203133403031D442F452F5A2F5B
:100E8A003608293E84003030831380003608C03E7D
:100E9A00F40086300A128A1128250A128A110130B2
:100EAA00FA007A0883120313B60702303406031DC8
:100EBA005F2F602F752F3608293E84003130831347
:100ECA0080003608C03EF40086300A128A112825AE
:100EDA000A128A110130FA007A0883120313B6073C
:100EEA00B10108303606031D7B2F7C2FFA2E2930DC
:100EFA00F00020300A128A1186250A128A11710816
:100F0A0083120313B3007008B20032083304031DBE
:100F1A008F2F902FA12F8030F40012300A128A11DD
:100F2A0028250A128A11C030F40045300A128A11A3
:100F3A0028250A128A11FA2EB6010130B5020319C0
:100F4A00A72FA82FEA2F8030F40056300A128A11F0
:100F5A0028250A128A11C030F400831203133508B7
:100F6A00303E0A128A11DD240A128A11C130F400B5
:100F7A0066300A128A1128250A128A113330FC00B7
:100F8A00BB30FB00DF30FA00FA0BC92FFB0BC92F6D
:100F9A00FC0BC92FD02FC030F40001300A128A117D
:100FAA0028250A128A11FA2E8030F40034300A12E7
:100FBA008A1128250A128A11C030F40076300A12E2
:100FCA008A1128250A128A11FA2EFA2E0A128A1171
:100FDA00002883134130FD000430FE00AD30FF00CD
:100FEA00373084000A128A11F2240A128A11830104
:060FFA000A128A11DB2E31
:02400E00FB3F76
:00000001FF
