:020000040000FA
:060000000A128A11F62F1E
:100D020001348316031306083F3886000800831255
:100D1200031388018316031388010A128A1182269B
:100D22000A128A110800F1007108031D992E9A2EE9
:100D32009F2E8312031306083F39BD2E3F308312C4
:100D420003130605F0003F3070060319A92EAA2EE0
:100D5200B12E7A080319AE2EAF2EB12EFA019A2EB9
:100D62003F300605F0003F307006031DB92EBA2E43
:100D7200BC2EFA01FA0A3F3008000030F6000030BB
:100D8200F5000030F4000030F300F8010A128A1175
:100D920088260A128A1101300A128A1194260A122E
:100DA2008A11F7003E307706031DD82ED92EDF2E8A
:100DB200831203138801F801F80AF9013D3077061E
:100DC200031DE42EE52EEB2E83120313880102305D
:100DD200F800F9013B307706031DF02EF12EF82EB4
:100DE2008312031388010330F800F901F90A37303E
:100DF2007706031DFD2EFE2E052F83120313880195
:100E02000430F800F901F90A0130F3070030031841
:100E12000130F407003003180130F50700300318E1
:100E22000130F60751307306C33003197406750496
:100E32007604031D1D2F1E2FCC2E0030F60000302D
:100E4200F5000030F4000030F3007803031D2A2F70
:100E52002B2F852F093079020318302F312F392F8C
:100E6200031483120313880D0130F2007208F9078C
:100E720009307902031C3E2F3F2F4F2F1230790287
:100E82000318442F452F4F2F831203130808F20033
:100E9200720788000130F2007208F90712307902F5
:100EA200031C542F552F672F1B30790203185A2F1A
:100EB2005B2F672F831203130808F2000310720CD2
:100EC200803888000130F2007208F9071B3079027D
:100ED200031C6C2F6D2F852F243079020318722F7B
:100EE200732F852F831203130808F2000310720C6C
:100EF20088000130F2007208F90724307906031DD8
:100F0200832F842F852FF90102307806031D8A2F43
:100F12008B2FB62F093079020318902F912F992F1A
:100F2200031483120313880D0130F2007208F907CB
:100F320009307902031C9E2F9F2FB62F123079029F
:100F42000318A42FA52FB62F831203130808F2004B
:100F5200720788000130F2007208F9071230790630
:100F6200031DB42FB52FB62FF90103307806031DE8
:100F7200BB2FBC2FD42F7903031DC02FC12FC52F28
:100F8200AA3083120313880002307906031DCA2F88
:100F9200CB2FD02F5530831203138800F901013073
:100FA200F2007208F90704307806031DD92FDA2FF0
:100FB200CC2E7903031DDE2FDF2FE32F0F30831298
:100FC2000313880002307906031DE82FE92FEE2F64
:100FD200F030831203138800F9010130F200720825
:100FE200F907CC2E0A128A1100280A128A118126C8
:0E0FF2000A128A11FA0083010A128A11BE2E19
:02400E00FB3F76
:00000001FF
