:020000040000FA
:060000000A128A11EE2F26
:100A3E008316031306083F38860008003F34063439
:100A4E005B344F3466346D347D3407347F346F3409
:100A5E0001348316031388010508033985008312B8
:100A6E00031305080339850008007E088A007F08F5
:100A7E0082000A128A113C250A128A118000840A09
:100A8E0004087D0603190034FF0A0319FE0A402DDF
:100A9E00F1006400831603178C18562D572D502D18
:100AAE007108831203178D003F30F0007008831613
:100ABE0003178C050C14831203170C080800F6019B
:100ACE00F701721C6B2D6C2D722D7408F60703182E
:100ADE00F70A7508F70701300310F40DF50DFF3E08
:100AEE00031D732D01300310F30CF20CFF3E031D9A
:100AFE007A2D72087304031D852D862D682D7708B7
:100B0E00F3007608F2000800F1007108031D902D25
:100B1E00912D962D8312031306083F39B42D3F30C5
:100B2E00831203130605F0003F3070060319A02D43
:100B3E00A12DA82D42080319A52DA62DA82DC20161
:100B4E00912D3F300605F0003F307006031DB02D8D
:100B5E00B12DB32DC201C20A3F30080001300A1276
:100B6E008A114F250A128A11F800F90100300A1273
:100B7E008A114F250A128A11FA00FB017A08F20037
:100B8E007B08F3006430F4000030F5000A128A117D
:100B9E0066250A128A117808720783120313C3009E
:100BAE0079080318790A7307C4000A128A111F25DF
:100BBE000A128A110A128A1130250A128A110800A5
:100BCE0083120313A200831603178C18EF2DF02D3A
:100BDE00EA2D831203132208831203178D0083124A
:100BEE0003132008831203178C003F308312031364
:100BFE00A1002108831603178C058312031303101B
:100C0E008B1F0A2E0B2E0C2E03148B138316031719
:100C1E000C1555308D00AA308D008C140C118312DA
:100C2E000313031C1B2E1C2E1D2E8B170800700881
:100C3E0071040319232E242E532EF501F50A322E9C
:100C4E0001300310F00DF10DFF3E031D282E013073
:100C5E00F4007408F507F11F352E362E272E710875
:100C6E007302031D3C2E70087202031C3F2E402E91
:100C7E00462E7008F2027108031CF303F3020130D2
:100C8E000310F10CF00CFF3E031D472E0130F50250
:100C9E00031D522E532E362E7308F1007208F000EB
:100CAE000800FB01FC017608770403195F2E602E05
:100CBE00972EFD01FD0A6E2E01300310F60DF70D75
:100CCE00FF3E031D642E0130FA007A08FD07F71F60
:100CDE00712E722E632E01300310FB0DFC0DFF3EA4
:100CEE00031D732E77087902031D7F2E7608780276
:100CFE00031C822E832E8A2E7608F8027708031C98
:100D0E00F903F9027B1401300310F70CF60CFF3EC9
:100D1E00031D8B2E0130FD02031D962E972E722E73
:100D2E007C08F7007B08F6000800F800F901790846
:100D3E007807F000700884008313000883120313F1
:100D4E0088000430F000790AAE2E0310F00DFF3E3D
:100D5E00031DAC2E05080339700485000030F70022
:100D6E000030F6000130F5009030F4000130F00054
:100D7E000030F1000030F2000030F3007008F40291
:100D8E007108031C710FCC2ECD2EF5027208031CB8
:100D9E00720FD22ED32EF6027308031C730FD82EA9
:100DAE00D92EF702740A031DE62E750A031DE62ED0
:100DBE00760A031DE62E770A031DE62EE72EBD2EBC
:100DCE000130F0007008F90704307902031CF02E90
:100DDE00F12E9E2E08002730840038308312031324
:100DEE00A3000408A4000A30A5002308840083137E
:100DFE000008A600A30A2408840026088000A40A7E
:100E0E00A50BFC2E6430B5000030B6000A128A1114
:100E1E00B5250A128A1101300A128A118B250A127F
:100E2E008A1183120313B7003D303706031D202F9E
:100E3E00212F512F6430F6000030F7004408F900DE
:100E4E004308F8000A128A1158260A128A117608E7
:100E5E0083120313A00000300A128A11E7250A122A
:100E6E008A116430F0000030F1008312031344083D
:100E7E00F3004308F2000A128A111E260A128A1182
:100E8E00700883120313A00001300A128A11E7259D
:100E9E000A128A11013083120313B5020030031CAB
:100EAE00B603B602350A031D602F360A031D602FE6
:100EBE00612F762F6430B5000030B6000130C307C5
:100ECE000318C40A0030C407273044021030031937
:100EDE004302031C732F742F762FC301C401E83015
:100EEE00F6000330F7004408F9004308F8000A1230
:100EFE008A1158260A128A117608273E8400831317
:100F0E00000883120313B1006430F6000030F700BE
:100F1E004408F3004308F200E830F0000330F1001B
:100F2E000A128A111E260A128A117108F900700817
:100F3E00F8000A128A1158260A128A117608273EDC
:100F4E0084008313000883120313B2000A30F600E4
:100F5E000030F7004408F3004308F2006430F0005C
:100F6E000030F1000A128A111E260A128A11710827
:100F7E00F9007008F8000A128A1158260A128A110E
:100F8E007608273E84008313000883120313B300F0
:100F9E000A30F0000030F1004408F3004308F2007C
:100FAE000A128A111E260A128A117008273E840020
:100FBE008313000883120313B40031300A128A110E
:100FCE009C260A128A11122F0A128A1100288313E4
:100FDE004330FD000530FE002530FF003830840020
:100FEE000A128A1140250A128A1183010A128A11E5
:020FFE00F22ED1
:02400E00FB3F76
:00000001FF
