:020000040000FA
:060000000A128A110C280F
:10000800FE00030EF0000A08F1000A128A1189287E
:100018000A128A110F280A128A1116210A128A1145
:10002800A6000A128A1117210A128A11A7000A12B9
:100038008A1118210A128A11A8000A128A11192194
:100048000A128A11A900AA01AB01F601F70183017E
:100058000A128A11C92883120313A400A5012508CE
:100068002407F20072088400831300088800043013
:10007800F200250A41280310F20DFF3E031D3F2818
:1000880005080339720485000030A3000030A2007F
:100098000130A1009030A0000130F2000030F300E0
:1000A8000030F4000030F500720883120313A00238
:1000B8007308031C730F61286228A1027408031CCB
:1000C800740F67286828A2027508031C750F6D282D
:1000D8006E28A302200A031D7B28210A031D7B2802
:1000E800220A031D7B28230A031D7B287C2850280D
:1000F8000130F200720883120313A50704302502A9
:10010800031C87288828332808008B1C8C288D28F6
:100118009028F601F7018B100B1D93289428C2280C
:10012800831203130108083E81000130AA0703184F
:10013800AB0A0030AB0720302A064E3003192B06D5
:10014800031DA728A828B028AA01AB010130F6078B
:100158000318F70A0030F707003077020530031953
:1001680076020318B828B928C1282A082B04031DC9
:10017800BE28BF28C128023086060B1171088A00E4
:10018800700E8300FE0E7E0E09000A128A11E3200B
:100198000A128A1100307702053003197602031813
:1001A800D628D728DE2826300A128A112F200A12CC
:1001B8008A11CE286300CE280A128A110C288316C9
:1001C800031386018312031386010A128A1111216F
:1001D8000A128A110A128A1107210A128A110A12AE
:1001E8008A11FB200A128A110B178B170800831635
:1001F80003138801050803398500831203130508D2
:10020800033985000800831603138112811506300F
:100218008312031381008B1608008316031301133E
:0C0228000B16080006345B344F346634BB
:02400E00FB3F76
:00000001FF
