:020000040000FA
:060000000A128A11EE2F26
:100BB0008316031306083F38860008000A128A11BC
:100BC000D8250A128A110A128A11F4250A128A11EA
:100BD00008003F3406345B344F3466346D347D3462
:100BE00007347F346F3401348316031388010508FA
:100BF00003398500831203130508033985000800B3
:100C00007E088A007F0882000A128A1100260A12D2
:100C10008A118000840A04087D0603190034FF0A43
:100C20000319FE0A042EF1007108031D182E192E57
:100C30001E2E8312031306083F393C2E3F308312C9
:100C400003130605F0003F3070060319282E292EE5
:100C5000302E420803192D2E2E2E302EC201192EB1
:100C60003F300605F0003F307006031D382E392E48
:100C70003B2EC201C20A3F300800700871040319FC
:100C8000422E432E722EF501F50A512E013003102B
:100C9000F00DF10DFF3E031D472E0130F4007408E6
:100CA000F507F11F542E552E462E71087302031DB1
:100CB0005B2E70087202031C5E2E5F2E652E70087C
:100CC000F2027108031CF303F30201300310F10C6C
:100CD000F00CFF3E031D662E0130F502031D712E40
:100CE000722E552E7308F1007208F0000800FB0107
:100CF000FC017608770403197E2E7F2EB62EFD01A7
:100D0000FD0A8D2E01300310F60DF70DFF3E031D79
:100D1000832E0130FA007A08FD07F71F902E912EDE
:100D2000822E01300310FB0DFC0DFF3E031D922EA1
:100D300077087902031D9E2E76087802031CA12EE7
:100D4000A22EA92E7608F8027708031CF903F902EF
:100D50007B1401300310F70CF60CFF3E031DAA2E86
:100D60000130FD02031DB52EB62E912E7C08F70032
:100D70007B08F6000800F800F90179087807F00010
:100D80007008840083130008831203138800043062
:100D9000F000790ACD2E0310F00DFF3E031DCB2E7F
:100DA00005080339700485000030F7000030F600B4
:100DB0000130F5009030F4000130F0000030F10017
:100DC0000030F2000030F3007008F4027108031CD8
:100DD000710FEB2EEC2EF5027208031C720FF12E30
:100DE000F22EF6027308031C730FF72EF82EF7028B
:100DF000740A031D052F750A031D052F760A031DAE
:100E0000052F770A031D052F062FDC2E0130F00079
:100E10007008F90704307902031C0F2F102FBD2E24
:100E2000080024308400383083120313A000040823
:100E3000A1000A30A2002008840083130008A30048
:100E4000A00A2108840023088000A10AA20B1B2FFE
:100E5000B601B701C830B2000030B3000A128A11DF
:100E6000DE250A128A1100300A128A1113260A128C
:100E70008A1183120313B5003E303506031D412F3E
:100E8000422F562F0130B2020030031CB303B302CD
:100E9000320A031D4F2F330A031D4F2F502F562F99
:100EA000C830B2000030B300B601B70101300A12F9
:100EB0008A1113260A128A1183120313B4003E30DA
:100EC0003406031D642F652F762F0130B6070318F3
:100ED000B70A0030B707273037021030031936023F
:100EE000031C732F742F762FB601B701E830F6007C
:100EF0000330F7003708F9003608F8000A128A11A3
:100F000077260A128A117608243E8400831300088B
:100F100083120313AE006430F6000030F700370888
:100F2000F3003608F200E830F0000330F1000A1256
:100F30008A113D260A128A117108F9007008F8001A
:100F40000A128A1177260A128A117608243E840032
:100F50008313000883120313AF000A30F600003039
:100F6000F7003708F3003608F2006430F000003074
:100F7000F1000A128A113D260A128A117108F9003D
:100F80007008F8000A128A1177260A128A11760868
:100F9000243E84008313000883120313B0000A3038
:100FA000F0000030F1003708F3003608F2000A12B2
:100FB0008A113D260A128A117008243E8400831388
:100FC000000883120313B1002E300A128A11BB26C7
:100FD0000A128A11332F0A128A1100288313433010
:100FE000FD000530FE00E930FF00383084000A12B1
:100FF0008A1104260A128A1183010A128A11112FFA
:02400E00FB3F76
:00000001FF
